{
  "_format": "hh-sol-artifact-1",
  "contractName": "Badges",
  "sourceName": "contracts/Badges.sol",
  "abi": [
    {
      "inputs": [],
      "stateMutability": "nonpayable",
      "type": "constructor"
    },
    {
      "anonymous": false,
      "inputs": [
        {
          "indexed": true,
          "internalType": "address",
          "name": "owner",
          "type": "address"
        },
        {
          "indexed": true,
          "internalType": "address",
          "name": "approved",
          "type": "address"
        },
        {
          "indexed": true,
          "internalType": "uint256",
          "name": "tokenId",
          "type": "uint256"
        }
      ],
      "name": "Approval",
      "type": "event"
    },
    {
      "anonymous": false,
      "inputs": [
        {
          "indexed": true,
          "internalType": "address",
          "name": "owner",
          "type": "address"
        },
        {
          "indexed": true,
          "internalType": "address",
          "name": "operator",
          "type": "address"
        },
        {
          "indexed": false,
          "internalType": "bool",
          "name": "approved",
          "type": "bool"
        }
      ],
      "name": "ApprovalForAll",
      "type": "event"
    },
    {
      "anonymous": false,
      "inputs": [
        {
          "indexed": true,
          "internalType": "address",
          "name": "previousOwner",
          "type": "address"
        },
        {
          "indexed": true,
          "internalType": "address",
          "name": "newOwner",
          "type": "address"
        }
      ],
      "name": "OwnershipTransferred",
      "type": "event"
    },
    {
      "anonymous": false,
      "inputs": [
        {
          "indexed": true,
          "internalType": "address",
          "name": "from",
          "type": "address"
        },
        {
          "indexed": true,
          "internalType": "address",
          "name": "to",
          "type": "address"
        },
        {
          "indexed": true,
          "internalType": "uint256",
          "name": "tokenId",
          "type": "uint256"
        }
      ],
      "name": "Transfer",
      "type": "event"
    },
    {
      "inputs": [
        {
          "internalType": "address",
          "name": "to",
          "type": "address"
        },
        {
          "internalType": "uint256",
          "name": "tokenId",
          "type": "uint256"
        }
      ],
      "name": "approve",
      "outputs": [],
      "stateMutability": "nonpayable",
      "type": "function"
    },
    {
      "inputs": [
        {
          "internalType": "uint256",
          "name": "",
          "type": "uint256"
        }
      ],
      "name": "badges",
      "outputs": [
        {
          "internalType": "uint256",
          "name": "numClonesAllowed",
          "type": "uint256"
        },
        {
          "internalType": "uint256",
          "name": "numClonesInWild",
          "type": "uint256"
        },
        {
          "internalType": "uint256",
          "name": "cloneFromId",
          "type": "uint256"
        }
      ],
      "stateMutability": "view",
      "type": "function"
    },
    {
      "inputs": [
        {
          "internalType": "address",
          "name": "owner",
          "type": "address"
        }
      ],
      "name": "balanceOf",
      "outputs": [
        {
          "internalType": "uint256",
          "name": "",
          "type": "uint256"
        }
      ],
      "stateMutability": "view",
      "type": "function"
    },
    {
      "inputs": [],
      "name": "baseURI",
      "outputs": [
        {
          "internalType": "string",
          "name": "",
          "type": "string"
        }
      ],
      "stateMutability": "view",
      "type": "function"
    },
    {
      "inputs": [
        {
          "internalType": "uint256",
          "name": "_tokenId",
          "type": "uint256"
        }
      ],
      "name": "burn",
      "outputs": [],
      "stateMutability": "nonpayable",
      "type": "function"
    },
    {
      "inputs": [
        {
          "internalType": "address",
          "name": "_to",
          "type": "address"
        },
        {
          "internalType": "uint256",
          "name": "_tokenId",
          "type": "uint256"
        },
        {
          "internalType": "uint256",
          "name": "_numClonesRequested",
          "type": "uint256"
        }
      ],
      "name": "clone",
      "outputs": [],
      "stateMutability": "nonpayable",
      "type": "function"
    },
    {
      "inputs": [
        {
          "internalType": "uint256",
          "name": "tokenId",
          "type": "uint256"
        }
      ],
      "name": "getApproved",
      "outputs": [
        {
          "internalType": "address",
          "name": "",
          "type": "address"
        }
      ],
      "stateMutability": "view",
      "type": "function"
    },
    {
      "inputs": [
        {
          "internalType": "uint256",
          "name": "_tokenId",
          "type": "uint256"
        }
      ],
      "name": "getBadgeById",
      "outputs": [
        {
          "internalType": "uint256",
          "name": "numClonesAllowed",
          "type": "uint256"
        },
        {
          "internalType": "uint256",
          "name": "numClonesInWild",
          "type": "uint256"
        },
        {
          "internalType": "uint256",
          "name": "cloneFromId",
          "type": "uint256"
        },
        {
          "internalType": "string",
          "name": "tokenUriInfo",
          "type": "string"
        }
      ],
      "stateMutability": "view",
      "type": "function"
    },
    {
      "inputs": [],
      "name": "getLatestBadgeId",
      "outputs": [
        {
          "internalType": "uint256",
          "name": "tokenId",
          "type": "uint256"
        }
      ],
      "stateMutability": "view",
      "type": "function"
    },
    {
      "inputs": [
        {
          "internalType": "address",
          "name": "owner",
          "type": "address"
        },
        {
          "internalType": "address",
          "name": "operator",
          "type": "address"
        }
      ],
      "name": "isApprovedForAll",
      "outputs": [
        {
          "internalType": "bool",
          "name": "",
          "type": "bool"
        }
      ],
      "stateMutability": "view",
      "type": "function"
    },
    {
      "inputs": [],
      "name": "isMintable",
      "outputs": [
        {
          "internalType": "bool",
          "name": "",
          "type": "bool"
        }
      ],
      "stateMutability": "view",
      "type": "function"
    },
    {
      "inputs": [
        {
          "internalType": "address",
          "name": "_to",
          "type": "address"
        },
        {
          "internalType": "uint256",
          "name": "_numClonesAllowed",
          "type": "uint256"
        },
        {
          "internalType": "string",
          "name": "_tokenUri",
          "type": "string"
        }
      ],
      "name": "mint",
      "outputs": [
        {
          "internalType": "uint256",
          "name": "tokenId",
          "type": "uint256"
        }
      ],
      "stateMutability": "nonpayable",
      "type": "function"
    },
    {
      "inputs": [],
      "name": "name",
      "outputs": [
        {
          "internalType": "string",
          "name": "",
          "type": "string"
        }
      ],
      "stateMutability": "view",
      "type": "function"
    },
    {
      "inputs": [],
      "name": "owner",
      "outputs": [
        {
          "internalType": "address",
          "name": "",
          "type": "address"
        }
      ],
      "stateMutability": "view",
      "type": "function"
    },
    {
      "inputs": [
        {
          "internalType": "uint256",
          "name": "tokenId",
          "type": "uint256"
        }
      ],
      "name": "ownerOf",
      "outputs": [
        {
          "internalType": "address",
          "name": "",
          "type": "address"
        }
      ],
      "stateMutability": "view",
      "type": "function"
    },
    {
      "inputs": [],
      "name": "renounceOwnership",
      "outputs": [],
      "stateMutability": "nonpayable",
      "type": "function"
    },
    {
      "inputs": [
        {
          "internalType": "address",
          "name": "from",
          "type": "address"
        },
        {
          "internalType": "address",
          "name": "to",
          "type": "address"
        },
        {
          "internalType": "uint256",
          "name": "tokenId",
          "type": "uint256"
        }
      ],
      "name": "safeTransferFrom",
      "outputs": [],
      "stateMutability": "nonpayable",
      "type": "function"
    },
    {
      "inputs": [
        {
          "internalType": "address",
          "name": "from",
          "type": "address"
        },
        {
          "internalType": "address",
          "name": "to",
          "type": "address"
        },
        {
          "internalType": "uint256",
          "name": "tokenId",
          "type": "uint256"
        },
        {
          "internalType": "bytes",
          "name": "_data",
          "type": "bytes"
        }
      ],
      "name": "safeTransferFrom",
      "outputs": [],
      "stateMutability": "nonpayable",
      "type": "function"
    },
    {
      "inputs": [
        {
          "internalType": "address",
          "name": "_from",
          "type": "address"
        },
        {
          "internalType": "address",
          "name": "_to",
          "type": "address"
        },
        {
          "internalType": "uint256",
          "name": "_tokenId",
          "type": "uint256"
        }
      ],
      "name": "sendBadge",
      "outputs": [],
      "stateMutability": "nonpayable",
      "type": "function"
    },
    {
      "inputs": [
        {
          "internalType": "address",
          "name": "operator",
          "type": "address"
        },
        {
          "internalType": "bool",
          "name": "approved",
          "type": "bool"
        }
      ],
      "name": "setApprovalForAll",
      "outputs": [],
      "stateMutability": "nonpayable",
      "type": "function"
    },
    {
      "inputs": [
        {
          "internalType": "bool",
          "name": "_isMintable",
          "type": "bool"
        }
      ],
      "name": "setMintable",
      "outputs": [],
      "stateMutability": "nonpayable",
      "type": "function"
    },
    {
      "inputs": [
        {
          "internalType": "uint256",
          "name": "_tokenId",
          "type": "uint256"
        },
        {
          "internalType": "string",
          "name": "_tokenURI",
          "type": "string"
        }
      ],
      "name": "setTokenURI",
      "outputs": [],
      "stateMutability": "nonpayable",
      "type": "function"
    },
    {
      "inputs": [
        {
          "internalType": "bytes4",
          "name": "interfaceId",
          "type": "bytes4"
        }
      ],
      "name": "supportsInterface",
      "outputs": [
        {
          "internalType": "bool",
          "name": "",
          "type": "bool"
        }
      ],
      "stateMutability": "view",
      "type": "function"
    },
    {
      "inputs": [],
      "name": "symbol",
      "outputs": [
        {
          "internalType": "string",
          "name": "",
          "type": "string"
        }
      ],
      "stateMutability": "view",
      "type": "function"
    },
    {
      "inputs": [
        {
          "internalType": "uint256",
          "name": "index",
          "type": "uint256"
        }
      ],
      "name": "tokenByIndex",
      "outputs": [
        {
          "internalType": "uint256",
          "name": "",
          "type": "uint256"
        }
      ],
      "stateMutability": "view",
      "type": "function"
    },
    {
      "inputs": [
        {
          "internalType": "address",
          "name": "owner",
          "type": "address"
        },
        {
          "internalType": "uint256",
          "name": "index",
          "type": "uint256"
        }
      ],
      "name": "tokenOfOwnerByIndex",
      "outputs": [
        {
          "internalType": "uint256",
          "name": "",
          "type": "uint256"
        }
      ],
      "stateMutability": "view",
      "type": "function"
    },
    {
      "inputs": [
        {
          "internalType": "uint256",
          "name": "tokenId",
          "type": "uint256"
        }
      ],
      "name": "tokenURI",
      "outputs": [
        {
          "internalType": "string",
          "name": "",
          "type": "string"
        }
      ],
      "stateMutability": "view",
      "type": "function"
    },
    {
      "inputs": [],
      "name": "totalSupply",
      "outputs": [
        {
          "internalType": "uint256",
          "name": "",
          "type": "uint256"
        }
      ],
      "stateMutability": "view",
      "type": "function"
    },
    {
      "inputs": [
        {
          "internalType": "address",
          "name": "from",
          "type": "address"
        },
        {
          "internalType": "address",
          "name": "to",
          "type": "address"
        },
        {
          "internalType": "uint256",
          "name": "tokenId",
          "type": "uint256"
        }
      ],
      "name": "transferFrom",
      "outputs": [],
      "stateMutability": "nonpayable",
      "type": "function"
    },
    {
      "inputs": [
        {
          "internalType": "address",
          "name": "newOwner",
          "type": "address"
        }
      ],
      "name": "transferOwnership",
      "outputs": [],
      "stateMutability": "nonpayable",
      "type": "function"
    }
  ],
  "bytecode": "0x60806040526001600d60006101000a81548160ff0219169083151502179055503480156200002c57600080fd5b506040518060400160405280601981526020017f466967687450616e64656d6963732e636f6d20426164676573000000000000008152506040518060400160405280600381526020017f4650420000000000000000000000000000000000000000000000000000000000815250620000b16301ffc9a760e01b6200026b60201b60201c565b8160069080519060200190620000c99291906200037c565b508060079080519060200190620000e29291906200037c565b50620000fb6380ac58cd60e01b6200026b60201b60201c565b62000113635b5e139f60e01b6200026b60201b60201c565b6200012b63780e9d6360e01b6200026b60201b60201c565b505060006200013f6200037460201b60201c565b905080600a60006101000a81548173ffffffffffffffffffffffffffffffffffffffff021916908373ffffffffffffffffffffffffffffffffffffffff1602179055508073ffffffffffffffffffffffffffffffffffffffff16600073ffffffffffffffffffffffffffffffffffffffff167f8be0079c531659141344cd1fd0a4f28419497f9722a3daafe3b4186f6b6457e060405160405180910390a3506000600c8054905014156200026557620001f762000403565b6040518060600160405280600081526020016000815260200160008152509050600c8190806001815401808255809150506001900390600052602060002090600302016000909190919091506000820151816000015560208201518160010155604082015181600201555050505b62000443565b63ffffffff60e01b817bffffffffffffffffffffffffffffffffffffffffffffffffffffffff1916141562000308576040517f08c379a000000000000000000000000000000000000000000000000000000000815260040180806020018281038252601c8152602001807f4552433136353a20696e76616c696420696e746572666163652069640000000081525060200191505060405180910390fd5b6001600080837bffffffffffffffffffffffffffffffffffffffffffffffffffffffff19167bffffffffffffffffffffffffffffffffffffffffffffffffffffffff1916815260200190815260200160002060006101000a81548160ff02191690831515021790555050565b600033905090565b828054600181600116156101000203166002900490600052602060002090601f016020900481019282601f10620003bf57805160ff1916838001178555620003f0565b82800160010185558215620003f0579182015b82811115620003ef578251825591602001919060010190620003d2565b5b509050620003ff919062000424565b5090565b60405180606001604052806000815260200160008152602001600081525090565b5b808211156200043f57600081600090555060010162000425565b5090565b61417f80620004536000396000f3fe608060405234801561001057600080fd5b50600436106101da5760003560e01c80636352211e11610104578063a22cb465116100a2578063d3fc986411610071578063d3fc986414610bd4578063e985e9c514610ccd578063ed74de9d14610d47578063f2fde38b14610d9f576101da565b8063a22cb4651461091c578063b4857ad41461096c578063b88d4fde14610a28578063c87b56dd14610b2d576101da565b8063715018a6116100de578063715018a61461080b5780638da5cb5b1461081557806395d89b411461084957806398e36d8b146108cc576101da565b80636352211e146106d85780636c0360eb1461073057806370a08231146107b3576101da565b806319f259bf1161017c57806342842e0e1161014b57806342842e0e146105da57806342966c681461064857806346b45af7146106765780634f6ccce714610696576101da565b806319f259bf1461046c57806323b872dd146104da578063285d70d4146105485780632f745c5914610578576101da565b8063095ea7b3116101b8578063095ea7b31461031d57806312745bfd1461036b578063162094c41461038957806318160ddd1461044e576101da565b806301ffc9a7146101df57806306fdde0314610242578063081812fc146102c5575b600080fd5b61022a600480360360208110156101f557600080fd5b8101908080357bffffffffffffffffffffffffffffffffffffffffffffffffffffffff19169060200190929190505050610de3565b60405180821515815260200191505060405180910390f35b61024a610e4a565b6040518080602001828103825283818151815260200191508051906020019080838360005b8381101561028a57808201518184015260208101905061026f565b50505050905090810190601f1680156102b75780820380516001836020036101000a031916815260200191505b509250505060405180910390f35b6102f1600480360360208110156102db57600080fd5b8101908080359060200190929190505050610eec565b604051808273ffffffffffffffffffffffffffffffffffffffff16815260200191505060405180910390f35b6103696004803603604081101561033357600080fd5b81019080803573ffffffffffffffffffffffffffffffffffffffff16906020019092919080359060200190929190505050610f87565b005b6103736110cb565b6040518082815260200191505060405180910390f35b61044c6004803603604081101561039f57600080fd5b8101908080359060200190929190803590602001906401000000008111156103c657600080fd5b8201836020820111156103d857600080fd5b803590602001918460018302840111640100000000831117156103fa57600080fd5b91908080601f016020809104026020016040519081016040528093929190818152602001838380828437600081840152601f19601f8201169050808301925050505050505091929192905050506110f2565b005b6104566111af565b6040518082815260200191505060405180910390f35b6104d86004803603606081101561048257600080fd5b81019080803573ffffffffffffffffffffffffffffffffffffffff169060200190929190803573ffffffffffffffffffffffffffffffffffffffff169060200190929190803590602001909291905050506111c0565b005b610546600480360360608110156104f057600080fd5b81019080803573ffffffffffffffffffffffffffffffffffffffff169060200190929190803573ffffffffffffffffffffffffffffffffffffffff1690602001909291908035906020019092919050505061127f565b005b6105766004803603602081101561055e57600080fd5b810190808035151590602001909291905050506112f5565b005b6105c46004803603604081101561058e57600080fd5b81019080803573ffffffffffffffffffffffffffffffffffffffff169060200190929190803590602001909291905050506113c1565b6040518082815260200191505060405180910390f35b610646600480360360608110156105f057600080fd5b81019080803573ffffffffffffffffffffffffffffffffffffffff169060200190929190803573ffffffffffffffffffffffffffffffffffffffff1690602001909291908035906020019092919050505061141c565b005b6106746004803603602081101561065e57600080fd5b810190808035906020019092919050505061143c565b005b61067e61162b565b60405180821515815260200191505060405180910390f35b6106c2600480360360208110156106ac57600080fd5b810190808035906020019092919050505061163e565b6040518082815260200191505060405180910390f35b610704600480360360208110156106ee57600080fd5b8101908080359060200190929190505050611661565b604051808273ffffffffffffffffffffffffffffffffffffffff16815260200191505060405180910390f35b610738611698565b6040518080602001828103825283818151815260200191508051906020019080838360005b8381101561077857808201518184015260208101905061075d565b50505050905090810190601f1680156107a55780820380516001836020036101000a031916815260200191505b509250505060405180910390f35b6107f5600480360360208110156107c957600080fd5b81019080803573ffffffffffffffffffffffffffffffffffffffff16906020019092919050505061173a565b6040518082815260200191505060405180910390f35b61081361180f565b005b61081d61197f565b604051808273ffffffffffffffffffffffffffffffffffffffff16815260200191505060405180910390f35b6108516119a9565b6040518080602001828103825283818151815260200191508051906020019080838360005b83811015610891578082015181840152602081019050610876565b50505050905090810190601f1680156108be5780820380516001836020036101000a031916815260200191505b509250505060405180910390f35b6108f8600480360360208110156108e257600080fd5b8101908080359060200190929190505050611a4b565b60405180848152602001838152602001828152602001935050505060405180910390f35b61096a6004803603604081101561093257600080fd5b81019080803573ffffffffffffffffffffffffffffffffffffffff169060200190929190803515159060200190929190505050611a82565b005b6109986004803603602081101561098257600080fd5b8101908080359060200190929190505050611c38565b6040518085815260200184815260200183815260200180602001828103825283818151815260200191508051906020019080838360005b838110156109ea5780820151818401526020810190506109cf565b50505050905090810190601f168015610a175780820380516001836020036101000a031916815260200191505b509550505050505060405180910390f35b610b2b60048036036080811015610a3e57600080fd5b81019080803573ffffffffffffffffffffffffffffffffffffffff169060200190929190803573ffffffffffffffffffffffffffffffffffffffff1690602001909291908035906020019092919080359060200190640100000000811115610aa557600080fd5b820183602082011115610ab757600080fd5b80359060200191846001830284011164010000000083111715610ad957600080fd5b91908080601f016020809104026020016040519081016040528093929190818152602001838380828437600081840152601f19601f820116905080830192505050505050509192919290505050611cb5565b005b610b5960048036036020811015610b4357600080fd5b8101908080359060200190929190505050611d2d565b6040518080602001828103825283818151815260200191508051906020019080838360005b83811015610b99578082015181840152602081019050610b7e565b50505050905090810190601f168015610bc65780820380516001836020036101000a031916815260200191505b509250505060405180910390f35b610cb760048036036060811015610bea57600080fd5b81019080803573ffffffffffffffffffffffffffffffffffffffff1690602001909291908035906020019092919080359060200190640100000000811115610c3157600080fd5b820183602082011115610c4357600080fd5b80359060200191846001830284011164010000000083111715610c6557600080fd5b91908080601f016020809104026020016040519081016040528093929190818152602001838380828437600081840152601f19601f820116905080830192505050505050509192919290505050611ffe565b6040518082815260200191505060405180910390f35b610d2f60048036036040811015610ce357600080fd5b81019080803573ffffffffffffffffffffffffffffffffffffffff169060200190929190803573ffffffffffffffffffffffffffffffffffffffff1690602001909291905050506121e3565b60405180821515815260200191505060405180910390f35b610d9d60048036036060811015610d5d57600080fd5b81019080803573ffffffffffffffffffffffffffffffffffffffff1690602001909291908035906020019092919080359060200190929190505050612277565b005b610de160048036036020811015610db557600080fd5b81019080803573ffffffffffffffffffffffffffffffffffffffff16906020019092919050505061255f565b005b6000806000837bffffffffffffffffffffffffffffffffffffffffffffffffffffffff19167bffffffffffffffffffffffffffffffffffffffffffffffffffffffff1916815260200190815260200160002060009054906101000a900460ff169050919050565b606060068054600181600116156101000203166002900480601f016020809104026020016040519081016040528092919081815260200182805460018160011615610100020316600290048015610ee25780601f10610eb757610100808354040283529160200191610ee2565b820191906000526020600020905b815481529060010190602001808311610ec557829003601f168201915b5050505050905090565b6000610ef782612754565b610f4c576040517f08c379a000000000000000000000000000000000000000000000000000000000815260040180806020018281038252602c815260200180614014602c913960400191505060405180910390fd5b6004600083815260200190815260200160002060009054906101000a900473ffffffffffffffffffffffffffffffffffffffff169050919050565b6000610f9282611661565b90508073ffffffffffffffffffffffffffffffffffffffff168373ffffffffffffffffffffffffffffffffffffffff161415611019576040517f08c379a00000000000000000000000000000000000000000000000000000000081526004018080602001828103825260218152602001806140f86021913960400191505060405180910390fd5b8073ffffffffffffffffffffffffffffffffffffffff16611038612771565b73ffffffffffffffffffffffffffffffffffffffff161480611067575061106681611061612771565b6121e3565b5b6110bc576040517f08c379a0000000000000000000000000000000000000000000000000000000008152600401808060200182810382526038815260200180613f676038913960400191505060405180910390fd5b6110c68383612779565b505050565b600080600c8054905014156110e357600090506110ef565b6001600c805490500390505b90565b6110fa612771565b73ffffffffffffffffffffffffffffffffffffffff1661111861197f565b73ffffffffffffffffffffffffffffffffffffffff16146111a1576040517f08c379a00000000000000000000000000000000000000000000000000000000081526004018080602001828103825260208152602001807f4f776e61626c653a2063616c6c6572206973206e6f7420746865206f776e657281525060200191505060405180910390fd5b6111ab8282612832565b5050565b60006111bb60026128bc565b905090565b6111c8612771565b73ffffffffffffffffffffffffffffffffffffffff166111e661197f565b73ffffffffffffffffffffffffffffffffffffffff161461126f576040517f08c379a00000000000000000000000000000000000000000000000000000000081526004018080602001828103825260208152602001807f4f776e61626c653a2063616c6c6572206973206e6f7420746865206f776e657281525060200191505060405180910390fd5b61127a83838361141c565b505050565b61129061128a612771565b826128d1565b6112e5576040517f08c379a00000000000000000000000000000000000000000000000000000000081526004018080602001828103825260318152602001806141196031913960400191505060405180910390fd5b6112f08383836129c5565b505050565b6112fd612771565b73ffffffffffffffffffffffffffffffffffffffff1661131b61197f565b73ffffffffffffffffffffffffffffffffffffffff16146113a4576040517f08c379a00000000000000000000000000000000000000000000000000000000081526004018080602001828103825260208152602001807f4f776e61626c653a2063616c6c6572206973206e6f7420746865206f776e657281525060200191505060405180910390fd5b80600d60006101000a81548160ff02191690831515021790555050565b600061141482600160008673ffffffffffffffffffffffffffffffffffffffff1673ffffffffffffffffffffffffffffffffffffffff168152602001908152602001600020612c0890919063ffffffff16565b905092915050565b61143783838360405180602001604052806000815250611cb5565b505050565b611444612771565b73ffffffffffffffffffffffffffffffffffffffff1661146261197f565b73ffffffffffffffffffffffffffffffffffffffff16146114eb576040517f08c379a00000000000000000000000000000000000000000000000000000000081526004018080602001828103825260208152602001807f4f776e61626c653a2063616c6c6572206973206e6f7420746865206f776e657281525060200191505060405180910390fd5b6114f3613d3e565b600c828154811061150057fe5b9060005260206000209060030201604051806060016040529081600082015481526020016001820154815260200160028201548152505090506000816040015190508083146115e757611551613d3e565b600c828154811061155e57fe5b906000526020600020906003020160405180606001604052908160008201548152602001600182015481526020016002820154815250509050600181602001818151039150818152505080600c83815481106115b657fe5b9060005260206000209060030201600082015181600001556020820151816001015560408201518160020155905050505b600c83815481106115f457fe5b906000526020600020906003020160008082016000905560018201600090556002820160009055505061162683612c22565b505050565b600d60009054906101000a900460ff1681565b600080611655836002612d5c90919063ffffffff16565b50905080915050919050565b600061169182604051806060016040528060298152602001613fc9602991396002612d889092919063ffffffff16565b9050919050565b606060098054600181600116156101000203166002900480601f0160208091040260200160405190810160405280929190818152602001828054600181600116156101000203166002900480156117305780601f1061170557610100808354040283529160200191611730565b820191906000526020600020905b81548152906001019060200180831161171357829003601f168201915b5050505050905090565b60008073ffffffffffffffffffffffffffffffffffffffff168273ffffffffffffffffffffffffffffffffffffffff1614156117c1576040517f08c379a000000000000000000000000000000000000000000000000000000000815260040180806020018281038252602a815260200180613f9f602a913960400191505060405180910390fd5b611808600160008473ffffffffffffffffffffffffffffffffffffffff1673ffffffffffffffffffffffffffffffffffffffff168152602001908152602001600020612da7565b9050919050565b611817612771565b73ffffffffffffffffffffffffffffffffffffffff1661183561197f565b73ffffffffffffffffffffffffffffffffffffffff16146118be576040517f08c379a00000000000000000000000000000000000000000000000000000000081526004018080602001828103825260208152602001807f4f776e61626c653a2063616c6c6572206973206e6f7420746865206f776e657281525060200191505060405180910390fd5b600073ffffffffffffffffffffffffffffffffffffffff16600a60009054906101000a900473ffffffffffffffffffffffffffffffffffffffff1673ffffffffffffffffffffffffffffffffffffffff167f8be0079c531659141344cd1fd0a4f28419497f9722a3daafe3b4186f6b6457e060405160405180910390a36000600a60006101000a81548173ffffffffffffffffffffffffffffffffffffffff021916908373ffffffffffffffffffffffffffffffffffffffff160217905550565b6000600a60009054906101000a900473ffffffffffffffffffffffffffffffffffffffff16905090565b606060078054600181600116156101000203166002900480601f016020809104026020016040519081016040528092919081815260200182805460018160011615610100020316600290048015611a415780601f10611a1657610100808354040283529160200191611a41565b820191906000526020600020905b815481529060010190602001808311611a2457829003601f168201915b5050505050905090565b600c8181548110611a5857fe5b90600052602060002090600302016000915090508060000154908060010154908060020154905083565b611a8a612771565b73ffffffffffffffffffffffffffffffffffffffff168273ffffffffffffffffffffffffffffffffffffffff161415611b2b576040517f08c379a00000000000000000000000000000000000000000000000000000000081526004018080602001828103825260198152602001807f4552433732313a20617070726f766520746f2063616c6c65720000000000000081525060200191505060405180910390fd5b8060056000611b38612771565b73ffffffffffffffffffffffffffffffffffffffff1673ffffffffffffffffffffffffffffffffffffffff16815260200190815260200160002060008473ffffffffffffffffffffffffffffffffffffffff1673ffffffffffffffffffffffffffffffffffffffff16815260200190815260200160002060006101000a81548160ff0219169083151502179055508173ffffffffffffffffffffffffffffffffffffffff16611be5612771565b73ffffffffffffffffffffffffffffffffffffffff167f17307eab39ab6107e8899845ad3d59bd9653f200f220920489ca2b5937696c318360405180821515815260200191505060405180910390a35050565b60008060006060611c47613d3e565b600c8681548110611c5457fe5b906000526020600020906003020160405180606001604052908160008201548152602001600182015481526020016002820154815250509050806000015194508060200151935080604001519250611cab86611d2d565b9150509193509193565b611cc6611cc0612771565b836128d1565b611d1b576040517f08c379a00000000000000000000000000000000000000000000000000000000081526004018080602001828103825260318152602001806141196031913960400191505060405180910390fd5b611d2784848484612dbc565b50505050565b6060611d3882612754565b611d8d576040517f08c379a000000000000000000000000000000000000000000000000000000000815260040180806020018281038252602f8152602001806140c9602f913960400191505060405180910390fd5b6060600860008481526020019081526020016000208054600181600116156101000203166002900480601f016020809104026020016040519081016040528092919081815260200182805460018160011615610100020316600290048015611e365780601f10611e0b57610100808354040283529160200191611e36565b820191906000526020600020905b815481529060010190602001808311611e1957829003601f168201915b505050505090506060611e47611698565b9050600081511415611e5d578192505050611ff9565b600082511115611f2e5780826040516020018083805190602001908083835b60208310611e9f5780518252602082019150602081019050602083039250611e7c565b6001836020036101000a03801982511681845116808217855250505050505090500182805190602001908083835b60208310611ef05780518252602082019150602081019050602083039250611ecd565b6001836020036101000a0380198251168184511680821785525050505050509050019250505060405160208183030381529060405292505050611ff9565b80611f3885612e2e565b6040516020018083805190602001908083835b60208310611f6e5780518252602082019150602081019050602083039250611f4b565b6001836020036101000a03801982511681845116808217855250505050505090500182805190602001908083835b60208310611fbf5780518252602082019150602081019050602083039250611f9c565b6001836020036101000a03801982511681845116808217855250505050505090500192505050604051602081830303815290604052925050505b919050565b600060011515600d60009054906101000a900460ff1615151461206c576040517f08c379a0000000000000000000000000000000000000000000000000000000008152600401808060200182810382526032815260200180613ebf6032913960400191505060405180910390fd5b612074612771565b73ffffffffffffffffffffffffffffffffffffffff1661209261197f565b73ffffffffffffffffffffffffffffffffffffffff161461211b576040517f08c379a00000000000000000000000000000000000000000000000000000000081526004018080602001828103825260208152602001807f4f776e61626c653a2063616c6c6572206973206e6f7420746865206f776e657281525060200191505060405180910390fd5b612123613d3e565b6040518060600160405280858152602001600081526020016000815250905061214c600b612f75565b612156600b612f8b565b9150600c819080600181540180825580915050600190039060005260206000209060030201600090919091909150600082015181600001556020820151816001015560408201518160020155505081600c83815481106121b257fe5b9060005260206000209060030201600201819055506121d18583612f99565b6121db8284612832565b509392505050565b6000600560008473ffffffffffffffffffffffffffffffffffffffff1673ffffffffffffffffffffffffffffffffffffffff16815260200190815260200160002060008373ffffffffffffffffffffffffffffffffffffffff1673ffffffffffffffffffffffffffffffffffffffff16815260200190815260200160002060009054906101000a900460ff16905092915050565b60011515600d60009054906101000a900460ff161515146122e3576040517f08c379a0000000000000000000000000000000000000000000000000000000008152600401808060200182810382526032815260200180613ebf6032913960400191505060405180910390fd5b6122eb612771565b73ffffffffffffffffffffffffffffffffffffffff1661230961197f565b73ffffffffffffffffffffffffffffffffffffffff1614612392576040517f08c379a00000000000000000000000000000000000000000000000000000000081526004018080602001828103825260208152602001807f4f776e61626c653a2063616c6c6572206973206e6f7420746865206f776e657281525060200191505060405180910390fd5b61239a613d3e565b600c83815481106123a757fe5b9060005260206000209060030201604051806060016040529081600082015481526020016001820154815260200160028201548152505090508060000151828260200151011115612443576040517f08c379a000000000000000000000000000000000000000000000000000000000815260040180806020018281038252603481526020018061406c6034913960400191505060405180910390fd5b8181602001818151019150818152505080600c848154811061246157fe5b906000526020600020906003020160008201518160000155602082015181600101556040820151816002015590505060005b82811015612558576124a3613d3e565b6000816000018181525050600081602001818152505084816040018181525050600c8190806001815401808255809150506001900390600052602060002090600302016000909190919091506000820151816000015560208201518160010155604082015181600201555050612519600b612f75565b6000612525600b612f8b565b90506125318782612f99565b606061253c87611d2d565b90506125488282612832565b5050508080600101915050612493565b5050505050565b612567612771565b73ffffffffffffffffffffffffffffffffffffffff1661258561197f565b73ffffffffffffffffffffffffffffffffffffffff161461260e576040517f08c379a00000000000000000000000000000000000000000000000000000000081526004018080602001828103825260208152602001807f4f776e61626c653a2063616c6c6572206973206e6f7420746865206f776e657281525060200191505060405180910390fd5b600073ffffffffffffffffffffffffffffffffffffffff168173ffffffffffffffffffffffffffffffffffffffff161415612694576040517f08c379a0000000000000000000000000000000000000000000000000000000008152600401808060200182810382526026815260200180613e996026913960400191505060405180910390fd5b8073ffffffffffffffffffffffffffffffffffffffff16600a60009054906101000a900473ffffffffffffffffffffffffffffffffffffffff1673ffffffffffffffffffffffffffffffffffffffff167f8be0079c531659141344cd1fd0a4f28419497f9722a3daafe3b4186f6b6457e060405160405180910390a380600a60006101000a81548173ffffffffffffffffffffffffffffffffffffffff021916908373ffffffffffffffffffffffffffffffffffffffff16021790555050565b600061276a826002612fb790919063ffffffff16565b9050919050565b600033905090565b816004600083815260200190815260200160002060006101000a81548173ffffffffffffffffffffffffffffffffffffffff021916908373ffffffffffffffffffffffffffffffffffffffff160217905550808273ffffffffffffffffffffffffffffffffffffffff166127ec83611661565b73ffffffffffffffffffffffffffffffffffffffff167f8c5be1e5ebec7d5bd14f71427d1e84f3dd0314c0f7b2291e5b200ac8c7c3b92560405160405180910390a45050565b61283b82612754565b612890576040517f08c379a000000000000000000000000000000000000000000000000000000000815260040180806020018281038252602c815260200180614040602c913960400191505060405180910390fd5b806008600084815260200190815260200160002090805190602001906128b7929190613d5f565b505050565b60006128ca82600001612fd1565b9050919050565b60006128dc82612754565b612931576040517f08c379a000000000000000000000000000000000000000000000000000000000815260040180806020018281038252602c815260200180613f3b602c913960400191505060405180910390fd5b600061293c83611661565b90508073ffffffffffffffffffffffffffffffffffffffff168473ffffffffffffffffffffffffffffffffffffffff1614806129ab57508373ffffffffffffffffffffffffffffffffffffffff1661299384610eec565b73ffffffffffffffffffffffffffffffffffffffff16145b806129bc57506129bb81856121e3565b5b91505092915050565b8273ffffffffffffffffffffffffffffffffffffffff166129e582611661565b73ffffffffffffffffffffffffffffffffffffffff1614612a51576040517f08c379a00000000000000000000000000000000000000000000000000000000081526004018080602001828103825260298152602001806140a06029913960400191505060405180910390fd5b600073ffffffffffffffffffffffffffffffffffffffff168273ffffffffffffffffffffffffffffffffffffffff161415612ad7576040517f08c379a0000000000000000000000000000000000000000000000000000000008152600401808060200182810382526024815260200180613ef16024913960400191505060405180910390fd5b612ae2838383612fe2565b612aed600082612779565b612b3e81600160008673ffffffffffffffffffffffffffffffffffffffff1673ffffffffffffffffffffffffffffffffffffffff168152602001908152602001600020612fe790919063ffffffff16565b50612b9081600160008573ffffffffffffffffffffffffffffffffffffffff1673ffffffffffffffffffffffffffffffffffffffff16815260200190815260200160002061300190919063ffffffff16565b50612ba78183600261301b9092919063ffffffff16565b50808273ffffffffffffffffffffffffffffffffffffffff168473ffffffffffffffffffffffffffffffffffffffff167fddf252ad1be2c89b69c2b068fc378daa952ba7f163c4a11628f55a4df523b3ef60405160405180910390a4505050565b6000612c178360000183613050565b60001c905092915050565b6000612c2d82611661565b9050612c3b81600084612fe2565b612c46600083612779565b60006008600084815260200190815260200160002080546001816001161561010002031660029004905014612c9557600860008381526020019081526020016000206000612c949190613ddf565b5b612ce682600160008473ffffffffffffffffffffffffffffffffffffffff1673ffffffffffffffffffffffffffffffffffffffff168152602001908152602001600020612fe790919063ffffffff16565b50612cfb8260026130d390919063ffffffff16565b5081600073ffffffffffffffffffffffffffffffffffffffff168273ffffffffffffffffffffffffffffffffffffffff167fddf252ad1be2c89b69c2b068fc378daa952ba7f163c4a11628f55a4df523b3ef60405160405180910390a45050565b600080600080612d6f86600001866130ed565b915091508160001c8160001c9350935050509250929050565b6000612d9b846000018460001b84613186565b60001c90509392505050565b6000612db58260000161327c565b9050919050565b612dc78484846129c5565b612dd38484848461328d565b612e28576040517f08c379a0000000000000000000000000000000000000000000000000000000008152600401808060200182810382526032815260200180613e676032913960400191505060405180910390fd5b50505050565b60606000821415612e76576040518060400160405280600181526020017f30000000000000000000000000000000000000000000000000000000000000008152509050612f70565b600082905060005b60008214612ea0578080600101915050600a8281612e9857fe5b049150612e7e565b60608167ffffffffffffffff81118015612eb957600080fd5b506040519080825280601f01601f191660200182016040528015612eec5781602001600182028036833780820191505090505b50905060006001830390508593505b60008414612f6857600a8481612f0d57fe5b0660300160f81b82828060019003935081518110612f2757fe5b60200101907effffffffffffffffffffffffffffffffffffffffffffffffffffffffffffff1916908160001a905350600a8481612f6057fe5b049350612efb565b819450505050505b919050565b6001816000016000828254019250508190555050565b600081600001549050919050565b612fb38282604051806020016040528060008152506134a6565b5050565b6000612fc9836000018360001b613517565b905092915050565b600081600001805490509050919050565b505050565b6000612ff9836000018360001b61353a565b905092915050565b6000613013836000018360001b613622565b905092915050565b6000613047846000018460001b8473ffffffffffffffffffffffffffffffffffffffff1660001b613692565b90509392505050565b6000818360000180549050116130b1576040517f08c379a0000000000000000000000000000000000000000000000000000000008152600401808060200182810382526022815260200180613e456022913960400191505060405180910390fd5b8260000182815481106130c057fe5b9060005260206000200154905092915050565b60006130e5836000018360001b61376e565b905092915050565b6000808284600001805490501161314f576040517f08c379a0000000000000000000000000000000000000000000000000000000008152600401808060200182810382526022815260200180613ff26022913960400191505060405180910390fd5b600084600001848154811061316057fe5b906000526020600020906002020190508060000154816001015492509250509250929050565b6000808460010160008581526020019081526020016000205490506000811415839061324d576040517f08c379a00000000000000000000000000000000000000000000000000000000081526004018080602001828103825283818151815260200191508051906020019080838360005b838110156132125780820151818401526020810190506131f7565b50505050905090810190601f16801561323f5780820380516001836020036101000a031916815260200191505b509250505060405180910390fd5b5084600001600182038154811061326057fe5b9060005260206000209060020201600101549150509392505050565b600081600001805490509050919050565b60006132ae8473ffffffffffffffffffffffffffffffffffffffff16613887565b6132bb576001905061349e565b606061342563150b7a0260e01b6132d0612771565b888787604051602401808573ffffffffffffffffffffffffffffffffffffffff1681526020018473ffffffffffffffffffffffffffffffffffffffff16815260200183815260200180602001828103825283818151815260200191508051906020019080838360005b83811015613354578082015181840152602081019050613339565b50505050905090810190601f1680156133815780820380516001836020036101000a031916815260200191505b5095505050505050604051602081830303815290604052907bffffffffffffffffffffffffffffffffffffffffffffffffffffffff19166020820180517bffffffffffffffffffffffffffffffffffffffffffffffffffffffff8381831617835250505050604051806060016040528060328152602001613e67603291398773ffffffffffffffffffffffffffffffffffffffff1661389a9092919063ffffffff16565b9050600081806020019051602081101561343e57600080fd5b8101908080519060200190929190505050905063150b7a0260e01b7bffffffffffffffffffffffffffffffffffffffffffffffffffffffff1916817bffffffffffffffffffffffffffffffffffffffffffffffffffffffff191614925050505b949350505050565b6134b083836138b2565b6134bd600084848461328d565b613512576040517f08c379a0000000000000000000000000000000000000000000000000000000008152600401808060200182810382526032815260200180613e676032913960400191505060405180910390fd5b505050565b600080836001016000848152602001908152602001600020541415905092915050565b60008083600101600084815260200190815260200160002054905060008114613616576000600182039050600060018660000180549050039050600086600001828154811061358557fe5b90600052602060002001549050808760000184815481106135a257fe5b90600052602060002001819055506001830187600101600083815260200190815260200160002081905550866000018054806135da57fe5b6001900381819060005260206000200160009055905586600101600087815260200190815260200160002060009055600194505050505061361c565b60009150505b92915050565b600061362e8383613aa6565b61368757826000018290806001815401808255809150506001900390600052602060002001600090919091909150558260000180549050836001016000848152602001908152602001600020819055506001905061368c565b600090505b92915050565b600080846001016000858152602001908152602001600020549050600081141561373957846000016040518060400160405280868152602001858152509080600181540180825580915050600190039060005260206000209060020201600090919091909150600082015181600001556020820151816001015550508460000180549050856001016000868152602001908152602001600020819055506001915050613767565b8285600001600183038154811061374c57fe5b90600052602060002090600202016001018190555060009150505b9392505050565b6000808360010160008481526020019081526020016000205490506000811461387b57600060018203905060006001866000018054905003905060008660000182815481106137b957fe5b90600052602060002090600202019050808760000184815481106137d957fe5b906000526020600020906002020160008201548160000155600182015481600101559050506001830187600101600083600001548152602001908152602001600020819055508660000180548061382c57fe5b6001900381819060005260206000209060020201600080820160009055600182016000905550509055866001016000878152602001908152602001600020600090556001945050505050613881565b60009150505b92915050565b600080823b905060008111915050919050565b60606138a98484600085613ac9565b90509392505050565b600073ffffffffffffffffffffffffffffffffffffffff168273ffffffffffffffffffffffffffffffffffffffff161415613955576040517f08c379a00000000000000000000000000000000000000000000000000000000081526004018080602001828103825260208152602001807f4552433732313a206d696e7420746f20746865207a65726f206164647265737381525060200191505060405180910390fd5b61395e81612754565b156139d1576040517f08c379a000000000000000000000000000000000000000000000000000000000815260040180806020018281038252601c8152602001807f4552433732313a20746f6b656e20616c7265616479206d696e7465640000000081525060200191505060405180910390fd5b6139dd60008383612fe2565b613a2e81600160008573ffffffffffffffffffffffffffffffffffffffff1673ffffffffffffffffffffffffffffffffffffffff16815260200190815260200160002061300190919063ffffffff16565b50613a458183600261301b9092919063ffffffff16565b50808273ffffffffffffffffffffffffffffffffffffffff16600073ffffffffffffffffffffffffffffffffffffffff167fddf252ad1be2c89b69c2b068fc378daa952ba7f163c4a11628f55a4df523b3ef60405160405180910390a45050565b600080836001016000848152602001908152602001600020541415905092915050565b606082471015613b24576040517f08c379a0000000000000000000000000000000000000000000000000000000008152600401808060200182810382526026815260200180613f156026913960400191505060405180910390fd5b613b2d85613887565b613b9f576040517f08c379a000000000000000000000000000000000000000000000000000000000815260040180806020018281038252601d8152602001807f416464726573733a2063616c6c20746f206e6f6e2d636f6e747261637400000081525060200191505060405180910390fd5b600060608673ffffffffffffffffffffffffffffffffffffffff1685876040518082805190602001908083835b60208310613bef5780518252602082019150602081019050602083039250613bcc565b6001836020036101000a03801982511681845116808217855250505050505090500191505060006040518083038185875af1925050503d8060008114613c51576040519150601f19603f3d011682016040523d82523d6000602084013e613c56565b606091505b5091509150613c66828286613c72565b92505050949350505050565b60608315613c8257829050613d37565b600083511115613c955782518084602001fd5b816040517f08c379a00000000000000000000000000000000000000000000000000000000081526004018080602001828103825283818151815260200191508051906020019080838360005b83811015613cfc578082015181840152602081019050613ce1565b50505050905090810190601f168015613d295780820380516001836020036101000a031916815260200191505b509250505060405180910390fd5b9392505050565b60405180606001604052806000815260200160008152602001600081525090565b828054600181600116156101000203166002900490600052602060002090601f016020900481019282601f10613da057805160ff1916838001178555613dce565b82800160010185558215613dce579182015b82811115613dcd578251825591602001919060010190613db2565b5b509050613ddb9190613e27565b5090565b50805460018160011615610100020316600290046000825580601f10613e055750613e24565b601f016020900490600052602060002090810190613e239190613e27565b5b50565b5b80821115613e40576000816000905550600101613e28565b509056fe456e756d657261626c655365743a20696e646578206f7574206f6620626f756e64734552433732313a207472616e7366657220746f206e6f6e20455243373231526563656976657220696d706c656d656e7465724f776e61626c653a206e6577206f776e657220697320746865207a65726f20616464726573734e657720626164676520617265206e6f206c6f6e676572206d696e7461626c65206f6e207468697320636f6e74726163742e4552433732313a207472616e7366657220746f20746865207a65726f2061646472657373416464726573733a20696e73756666696369656e742062616c616e636520666f722063616c6c4552433732313a206f70657261746f7220717565727920666f72206e6f6e6578697374656e7420746f6b656e4552433732313a20617070726f76652063616c6c6572206973206e6f74206f776e6572206e6f7220617070726f76656420666f7220616c6c4552433732313a2062616c616e636520717565727920666f7220746865207a65726f20616464726573734552433732313a206f776e657220717565727920666f72206e6f6e6578697374656e7420746f6b656e456e756d657261626c654d61703a20696e646578206f7574206f6620626f756e64734552433732313a20617070726f76656420717565727920666f72206e6f6e6578697374656e7420746f6b656e4552433732314d657461646174613a2055524920736574206f66206e6f6e6578697374656e7420746f6b656e4e6f2e206f6620636c6f6e65732072657175657374656420657863656564206e6f2e206f6620636c6f6e657320616c6c6f7765644552433732313a207472616e73666572206f6620746f6b656e2074686174206973206e6f74206f776e4552433732314d657461646174613a2055524920717565727920666f72206e6f6e6578697374656e7420746f6b656e4552433732313a20617070726f76616c20746f2063757272656e74206f776e65724552433732313a207472616e736665722063616c6c6572206973206e6f74206f776e6572206e6f7220617070726f766564a26469706673582212201be024e683344ca35dfd80cd7f6f44a13415d867c12f3f3965b77223fec2bb6764736f6c63430007030033",
  "linkReferences": {},
  "deployedLinkReferences": {}
}