{
  "_format": "hh-sol-artifact-1",
  "contractName": "Badges",
  "sourceName": "contracts/Badges.sol",
  "abi": [
    {
      "inputs": [],
      "stateMutability": "nonpayable",
      "type": "constructor"
    },
    {
      "anonymous": false,
      "inputs": [
        {
          "indexed": true,
          "internalType": "address",
          "name": "owner",
          "type": "address"
        },
        {
          "indexed": true,
          "internalType": "address",
          "name": "approved",
          "type": "address"
        },
        {
          "indexed": true,
          "internalType": "uint256",
          "name": "tokenId",
          "type": "uint256"
        }
      ],
      "name": "Approval",
      "type": "event"
    },
    {
      "anonymous": false,
      "inputs": [
        {
          "indexed": true,
          "internalType": "address",
          "name": "owner",
          "type": "address"
        },
        {
          "indexed": true,
          "internalType": "address",
          "name": "operator",
          "type": "address"
        },
        {
          "indexed": false,
          "internalType": "bool",
          "name": "approved",
          "type": "bool"
        }
      ],
      "name": "ApprovalForAll",
      "type": "event"
    },
    {
      "anonymous": false,
      "inputs": [
        {
          "indexed": false,
          "internalType": "uint256",
          "name": "tokenId",
          "type": "uint256"
        },
        {
          "indexed": false,
          "internalType": "uint256",
          "name": "numClonesAllowed",
          "type": "uint256"
        },
        {
          "indexed": false,
          "internalType": "uint256",
          "name": "numClonesInWild",
          "type": "uint256"
        },
        {
          "indexed": false,
          "internalType": "string",
          "name": "tokenUri",
          "type": "string"
        },
        {
          "indexed": false,
          "internalType": "address",
          "name": "owner",
          "type": "address"
        }
      ],
      "name": "Minted",
      "type": "event"
    },
    {
      "anonymous": false,
      "inputs": [
        {
          "indexed": true,
          "internalType": "address",
          "name": "previousOwner",
          "type": "address"
        },
        {
          "indexed": true,
          "internalType": "address",
          "name": "newOwner",
          "type": "address"
        }
      ],
      "name": "OwnershipTransferred",
      "type": "event"
    },
    {
      "anonymous": false,
      "inputs": [
        {
          "indexed": true,
          "internalType": "address",
          "name": "from",
          "type": "address"
        },
        {
          "indexed": true,
          "internalType": "address",
          "name": "to",
          "type": "address"
        },
        {
          "indexed": true,
          "internalType": "uint256",
          "name": "tokenId",
          "type": "uint256"
        }
      ],
      "name": "Transfer",
      "type": "event"
    },
    {
      "inputs": [
        {
          "internalType": "address",
          "name": "to",
          "type": "address"
        },
        {
          "internalType": "uint256",
          "name": "tokenId",
          "type": "uint256"
        }
      ],
      "name": "approve",
      "outputs": [],
      "stateMutability": "nonpayable",
      "type": "function"
    },
    {
      "inputs": [
        {
          "internalType": "uint256",
          "name": "",
          "type": "uint256"
        }
      ],
      "name": "badges",
      "outputs": [
        {
          "internalType": "uint256",
          "name": "numClonesAllowed",
          "type": "uint256"
        },
        {
          "internalType": "uint256",
          "name": "numClonesInWild",
          "type": "uint256"
        },
        {
          "internalType": "uint256",
          "name": "cloneFromId",
          "type": "uint256"
        }
      ],
      "stateMutability": "view",
      "type": "function"
    },
    {
      "inputs": [
        {
          "internalType": "address",
          "name": "owner",
          "type": "address"
        }
      ],
      "name": "balanceOf",
      "outputs": [
        {
          "internalType": "uint256",
          "name": "",
          "type": "uint256"
        }
      ],
      "stateMutability": "view",
      "type": "function"
    },
    {
      "inputs": [],
      "name": "baseURI",
      "outputs": [
        {
          "internalType": "string",
          "name": "",
          "type": "string"
        }
      ],
      "stateMutability": "view",
      "type": "function"
    },
    {
      "inputs": [
        {
          "internalType": "uint256",
          "name": "tokenId",
          "type": "uint256"
        }
      ],
      "name": "getApproved",
      "outputs": [
        {
          "internalType": "address",
          "name": "",
          "type": "address"
        }
      ],
      "stateMutability": "view",
      "type": "function"
    },
    {
      "inputs": [
        {
          "internalType": "uint256",
          "name": "_tokenId",
          "type": "uint256"
        }
      ],
      "name": "getBadgeById",
      "outputs": [
        {
          "internalType": "uint256",
          "name": "numClonesAllowed",
          "type": "uint256"
        },
        {
          "internalType": "uint256",
          "name": "numClonesInWild",
          "type": "uint256"
        },
        {
          "internalType": "uint256",
          "name": "cloneFromId",
          "type": "uint256"
        },
        {
          "internalType": "string",
          "name": "tokenUriInfo",
          "type": "string"
        }
      ],
      "stateMutability": "view",
      "type": "function"
    },
    {
      "inputs": [],
      "name": "getLatestBadgeId",
      "outputs": [
        {
          "internalType": "uint256",
          "name": "tokenId",
          "type": "uint256"
        }
      ],
      "stateMutability": "view",
      "type": "function"
    },
    {
      "inputs": [
        {
          "internalType": "address",
          "name": "owner",
          "type": "address"
        },
        {
          "internalType": "address",
          "name": "operator",
          "type": "address"
        }
      ],
      "name": "isApprovedForAll",
      "outputs": [
        {
          "internalType": "bool",
          "name": "",
          "type": "bool"
        }
      ],
      "stateMutability": "view",
      "type": "function"
    },
    {
      "inputs": [],
      "name": "isMintable",
      "outputs": [
        {
          "internalType": "bool",
          "name": "",
          "type": "bool"
        }
      ],
      "stateMutability": "view",
      "type": "function"
    },
    {
      "inputs": [
        {
          "internalType": "address",
          "name": "_to",
          "type": "address"
        },
        {
          "internalType": "uint256",
          "name": "_numClonesAllowed",
          "type": "uint256"
        },
        {
          "internalType": "string",
          "name": "_tokenUri",
          "type": "string"
        }
      ],
      "name": "mint",
      "outputs": [
        {
          "internalType": "uint256",
          "name": "tokenId",
          "type": "uint256"
        }
      ],
      "stateMutability": "nonpayable",
      "type": "function"
    },
    {
      "inputs": [],
      "name": "name",
      "outputs": [
        {
          "internalType": "string",
          "name": "",
          "type": "string"
        }
      ],
      "stateMutability": "view",
      "type": "function"
    },
    {
      "inputs": [],
      "name": "owner",
      "outputs": [
        {
          "internalType": "address",
          "name": "",
          "type": "address"
        }
      ],
      "stateMutability": "view",
      "type": "function"
    },
    {
      "inputs": [
        {
          "internalType": "uint256",
          "name": "tokenId",
          "type": "uint256"
        }
      ],
      "name": "ownerOf",
      "outputs": [
        {
          "internalType": "address",
          "name": "",
          "type": "address"
        }
      ],
      "stateMutability": "view",
      "type": "function"
    },
    {
      "inputs": [],
      "name": "renounceOwnership",
      "outputs": [],
      "stateMutability": "nonpayable",
      "type": "function"
    },
    {
      "inputs": [
        {
          "internalType": "address",
          "name": "from",
          "type": "address"
        },
        {
          "internalType": "address",
          "name": "to",
          "type": "address"
        },
        {
          "internalType": "uint256",
          "name": "tokenId",
          "type": "uint256"
        }
      ],
      "name": "safeTransferFrom",
      "outputs": [],
      "stateMutability": "nonpayable",
      "type": "function"
    },
    {
      "inputs": [
        {
          "internalType": "address",
          "name": "from",
          "type": "address"
        },
        {
          "internalType": "address",
          "name": "to",
          "type": "address"
        },
        {
          "internalType": "uint256",
          "name": "tokenId",
          "type": "uint256"
        },
        {
          "internalType": "bytes",
          "name": "_data",
          "type": "bytes"
        }
      ],
      "name": "safeTransferFrom",
      "outputs": [],
      "stateMutability": "nonpayable",
      "type": "function"
    },
    {
      "inputs": [
        {
          "internalType": "address",
          "name": "_from",
          "type": "address"
        },
        {
          "internalType": "address",
          "name": "_to",
          "type": "address"
        },
        {
          "internalType": "uint256",
          "name": "_tokenId",
          "type": "uint256"
        }
      ],
      "name": "sendBadge",
      "outputs": [],
      "stateMutability": "nonpayable",
      "type": "function"
    },
    {
      "inputs": [
        {
          "internalType": "address",
          "name": "operator",
          "type": "address"
        },
        {
          "internalType": "bool",
          "name": "approved",
          "type": "bool"
        }
      ],
      "name": "setApprovalForAll",
      "outputs": [],
      "stateMutability": "nonpayable",
      "type": "function"
    },
    {
      "inputs": [
        {
          "internalType": "bool",
          "name": "_isMintable",
          "type": "bool"
        }
      ],
      "name": "setMintable",
      "outputs": [],
      "stateMutability": "nonpayable",
      "type": "function"
    },
    {
      "inputs": [
        {
          "internalType": "uint256",
          "name": "_tokenId",
          "type": "uint256"
        },
        {
          "internalType": "string",
          "name": "_tokenURI",
          "type": "string"
        }
      ],
      "name": "setTokenURI",
      "outputs": [],
      "stateMutability": "nonpayable",
      "type": "function"
    },
    {
      "inputs": [
        {
          "internalType": "bytes4",
          "name": "interfaceId",
          "type": "bytes4"
        }
      ],
      "name": "supportsInterface",
      "outputs": [
        {
          "internalType": "bool",
          "name": "",
          "type": "bool"
        }
      ],
      "stateMutability": "view",
      "type": "function"
    },
    {
      "inputs": [],
      "name": "symbol",
      "outputs": [
        {
          "internalType": "string",
          "name": "",
          "type": "string"
        }
      ],
      "stateMutability": "view",
      "type": "function"
    },
    {
      "inputs": [
        {
          "internalType": "uint256",
          "name": "index",
          "type": "uint256"
        }
      ],
      "name": "tokenByIndex",
      "outputs": [
        {
          "internalType": "uint256",
          "name": "",
          "type": "uint256"
        }
      ],
      "stateMutability": "view",
      "type": "function"
    },
    {
      "inputs": [
        {
          "internalType": "address",
          "name": "owner",
          "type": "address"
        },
        {
          "internalType": "uint256",
          "name": "index",
          "type": "uint256"
        }
      ],
      "name": "tokenOfOwnerByIndex",
      "outputs": [
        {
          "internalType": "uint256",
          "name": "",
          "type": "uint256"
        }
      ],
      "stateMutability": "view",
      "type": "function"
    },
    {
      "inputs": [
        {
          "internalType": "uint256",
          "name": "tokenId",
          "type": "uint256"
        }
      ],
      "name": "tokenURI",
      "outputs": [
        {
          "internalType": "string",
          "name": "",
          "type": "string"
        }
      ],
      "stateMutability": "view",
      "type": "function"
    },
    {
      "inputs": [],
      "name": "totalSupply",
      "outputs": [
        {
          "internalType": "uint256",
          "name": "",
          "type": "uint256"
        }
      ],
      "stateMutability": "view",
      "type": "function"
    },
    {
      "inputs": [
        {
          "internalType": "address",
          "name": "from",
          "type": "address"
        },
        {
          "internalType": "address",
          "name": "to",
          "type": "address"
        },
        {
          "internalType": "uint256",
          "name": "tokenId",
          "type": "uint256"
        }
      ],
      "name": "transferFrom",
      "outputs": [],
      "stateMutability": "nonpayable",
      "type": "function"
    },
    {
      "inputs": [
        {
          "internalType": "address",
          "name": "newOwner",
          "type": "address"
        }
      ],
      "name": "transferOwnership",
      "outputs": [],
      "stateMutability": "nonpayable",
      "type": "function"
    }
  ],
  "bytecode": "0x60806040526001600d60006101000a81548160ff0219169083151502179055503480156200002c57600080fd5b506040518060400160405280601981526020017f466967687450616e64656d6963732e636f6d20426164676573000000000000008152506040518060400160405280600381526020017f4650420000000000000000000000000000000000000000000000000000000000815250620000b16301ffc9a760e01b6200026b60201b60201c565b8160069080519060200190620000c99291906200037c565b508060079080519060200190620000e29291906200037c565b50620000fb6380ac58cd60e01b6200026b60201b60201c565b62000113635b5e139f60e01b6200026b60201b60201c565b6200012b63780e9d6360e01b6200026b60201b60201c565b505060006200013f6200037460201b60201c565b905080600a60006101000a81548173ffffffffffffffffffffffffffffffffffffffff021916908373ffffffffffffffffffffffffffffffffffffffff1602179055508073ffffffffffffffffffffffffffffffffffffffff16600073ffffffffffffffffffffffffffffffffffffffff167f8be0079c531659141344cd1fd0a4f28419497f9722a3daafe3b4186f6b6457e060405160405180910390a3506000600c8054905014156200026557620001f762000403565b6040518060600160405280600081526020016000815260200160008152509050600c8190806001815401808255809150506001900390600052602060002090600302016000909190919091506000820151816000015560208201518160010155604082015181600201555050505b62000443565b63ffffffff60e01b817bffffffffffffffffffffffffffffffffffffffffffffffffffffffff1916141562000308576040517f08c379a000000000000000000000000000000000000000000000000000000000815260040180806020018281038252601c8152602001807f4552433136353a20696e76616c696420696e746572666163652069640000000081525060200191505060405180910390fd5b6001600080837bffffffffffffffffffffffffffffffffffffffffffffffffffffffff19167bffffffffffffffffffffffffffffffffffffffffffffffffffffffff1916815260200190815260200160002060006101000a81548160ff02191690831515021790555050565b600033905090565b828054600181600116156101000203166002900490600052602060002090601f016020900481019282601f10620003bf57805160ff1916838001178555620003f0565b82800160010185558215620003f0579182015b82811115620003ef578251825591602001919060010190620003d2565b5b509050620003ff919062000424565b5090565b60405180606001604052806000815260200160008152602001600081525090565b5b808211156200043f57600081600090555060010162000425565b5090565b613a0e80620004536000396000f3fe608060405234801561001057600080fd5b50600436106101c45760003560e01c80636352211e116100f9578063a22cb46511610097578063c87b56dd11610071578063c87b56dd14610ae9578063d3fc986414610b90578063e985e9c514610c89578063f2fde38b14610d03576101c4565b8063a22cb465146108d8578063b4857ad414610928578063b88d4fde146109e4576101c4565b8063715018a6116100d3578063715018a6146107c75780638da5cb5b146107d157806395d89b411461080557806398e36d8b14610888576101c4565b80636352211e146106945780636c0360eb146106ec57806370a082311461076f576101c4565b806319f259bf116101665780632f745c59116101405780632f745c591461056257806342842e0e146105c457806346b45af7146106325780634f6ccce714610652576101c4565b806319f259bf1461045657806323b872dd146104c4578063285d70d414610532576101c4565b8063095ea7b3116101a2578063095ea7b31461030757806312745bfd14610355578063162094c41461037357806318160ddd14610438576101c4565b806301ffc9a7146101c957806306fdde031461022c578063081812fc146102af575b600080fd5b610214600480360360208110156101df57600080fd5b8101908080357bffffffffffffffffffffffffffffffffffffffffffffffffffffffff19169060200190929190505050610d47565b60405180821515815260200191505060405180910390f35b610234610dae565b6040518080602001828103825283818151815260200191508051906020019080838360005b83811015610274578082015181840152602081019050610259565b50505050905090810190601f1680156102a15780820380516001836020036101000a031916815260200191505b509250505060405180910390f35b6102db600480360360208110156102c557600080fd5b8101908080359060200190929190505050610e50565b604051808273ffffffffffffffffffffffffffffffffffffffff16815260200191505060405180910390f35b6103536004803603604081101561031d57600080fd5b81019080803573ffffffffffffffffffffffffffffffffffffffff16906020019092919080359060200190929190505050610eeb565b005b61035d61102f565b6040518082815260200191505060405180910390f35b6104366004803603604081101561038957600080fd5b8101908080359060200190929190803590602001906401000000008111156103b057600080fd5b8201836020820111156103c257600080fd5b803590602001918460018302840111640100000000831117156103e457600080fd5b91908080601f016020809104026020016040519081016040528093929190818152602001838380828437600081840152601f19601f820116905080830192505050505050509192919290505050611056565b005b610440611113565b6040518082815260200191505060405180910390f35b6104c26004803603606081101561046c57600080fd5b81019080803573ffffffffffffffffffffffffffffffffffffffff169060200190929190803573ffffffffffffffffffffffffffffffffffffffff16906020019092919080359060200190929190505050611124565b005b610530600480360360608110156104da57600080fd5b81019080803573ffffffffffffffffffffffffffffffffffffffff169060200190929190803573ffffffffffffffffffffffffffffffffffffffff169060200190929190803590602001909291905050506111e3565b005b6105606004803603602081101561054857600080fd5b81019080803515159060200190929190505050611259565b005b6105ae6004803603604081101561057857600080fd5b81019080803573ffffffffffffffffffffffffffffffffffffffff16906020019092919080359060200190929190505050611325565b6040518082815260200191505060405180910390f35b610630600480360360608110156105da57600080fd5b81019080803573ffffffffffffffffffffffffffffffffffffffff169060200190929190803573ffffffffffffffffffffffffffffffffffffffff16906020019092919080359060200190929190505050611380565b005b61063a6113a0565b60405180821515815260200191505060405180910390f35b61067e6004803603602081101561066857600080fd5b81019080803590602001909291905050506113b3565b6040518082815260200191505060405180910390f35b6106c0600480360360208110156106aa57600080fd5b81019080803590602001909291905050506113d6565b604051808273ffffffffffffffffffffffffffffffffffffffff16815260200191505060405180910390f35b6106f461140d565b6040518080602001828103825283818151815260200191508051906020019080838360005b83811015610734578082015181840152602081019050610719565b50505050905090810190601f1680156107615780820380516001836020036101000a031916815260200191505b509250505060405180910390f35b6107b16004803603602081101561078557600080fd5b81019080803573ffffffffffffffffffffffffffffffffffffffff1690602001909291905050506114af565b6040518082815260200191505060405180910390f35b6107cf611584565b005b6107d96116f4565b604051808273ffffffffffffffffffffffffffffffffffffffff16815260200191505060405180910390f35b61080d61171e565b6040518080602001828103825283818151815260200191508051906020019080838360005b8381101561084d578082015181840152602081019050610832565b50505050905090810190601f16801561087a5780820380516001836020036101000a031916815260200191505b509250505060405180910390f35b6108b46004803603602081101561089e57600080fd5b81019080803590602001909291905050506117c0565b60405180848152602001838152602001828152602001935050505060405180910390f35b610926600480360360408110156108ee57600080fd5b81019080803573ffffffffffffffffffffffffffffffffffffffff1690602001909291908035151590602001909291905050506117f7565b005b6109546004803603602081101561093e57600080fd5b81019080803590602001909291905050506119ad565b6040518085815260200184815260200183815260200180602001828103825283818151815260200191508051906020019080838360005b838110156109a657808201518184015260208101905061098b565b50505050905090810190601f1680156109d35780820380516001836020036101000a031916815260200191505b509550505050505060405180910390f35b610ae7600480360360808110156109fa57600080fd5b81019080803573ffffffffffffffffffffffffffffffffffffffff169060200190929190803573ffffffffffffffffffffffffffffffffffffffff1690602001909291908035906020019092919080359060200190640100000000811115610a6157600080fd5b820183602082011115610a7357600080fd5b80359060200191846001830284011164010000000083111715610a9557600080fd5b91908080601f016020809104026020016040519081016040528093929190818152602001838380828437600081840152601f19601f820116905080830192505050505050509192919290505050611a2a565b005b610b1560048036036020811015610aff57600080fd5b8101908080359060200190929190505050611aa2565b6040518080602001828103825283818151815260200191508051906020019080838360005b83811015610b55578082015181840152602081019050610b3a565b50505050905090810190601f168015610b825780820380516001836020036101000a031916815260200191505b509250505060405180910390f35b610c7360048036036060811015610ba657600080fd5b81019080803573ffffffffffffffffffffffffffffffffffffffff1690602001909291908035906020019092919080359060200190640100000000811115610bed57600080fd5b820183602082011115610bff57600080fd5b80359060200191846001830284011164010000000083111715610c2157600080fd5b91908080601f016020809104026020016040519081016040528093929190818152602001838380828437600081840152601f19601f820116905080830192505050505050509192919290505050611d73565b6040518082815260200191505060405180910390f35b610ceb60048036036040811015610c9f57600080fd5b81019080803573ffffffffffffffffffffffffffffffffffffffff169060200190929190803573ffffffffffffffffffffffffffffffffffffffff169060200190929190505050612043565b60405180821515815260200191505060405180910390f35b610d4560048036036020811015610d1957600080fd5b81019080803573ffffffffffffffffffffffffffffffffffffffff1690602001909291905050506120d7565b005b6000806000837bffffffffffffffffffffffffffffffffffffffffffffffffffffffff19167bffffffffffffffffffffffffffffffffffffffffffffffffffffffff1916815260200190815260200160002060009054906101000a900460ff169050919050565b606060068054600181600116156101000203166002900480601f016020809104026020016040519081016040528092919081815260200182805460018160011615610100020316600290048015610e465780601f10610e1b57610100808354040283529160200191610e46565b820191906000526020600020905b815481529060010190602001808311610e2957829003601f168201915b5050505050905090565b6000610e5b826122cc565b610eb0576040517f08c379a000000000000000000000000000000000000000000000000000000000815260040180806020018281038252602c8152602001806138d7602c913960400191505060405180910390fd5b6004600083815260200190815260200160002060009054906101000a900473ffffffffffffffffffffffffffffffffffffffff169050919050565b6000610ef6826113d6565b90508073ffffffffffffffffffffffffffffffffffffffff168373ffffffffffffffffffffffffffffffffffffffff161415610f7d576040517f08c379a00000000000000000000000000000000000000000000000000000000081526004018080602001828103825260218152602001806139876021913960400191505060405180910390fd5b8073ffffffffffffffffffffffffffffffffffffffff16610f9c6122e9565b73ffffffffffffffffffffffffffffffffffffffff161480610fcb5750610fca81610fc56122e9565b612043565b5b611020576040517f08c379a000000000000000000000000000000000000000000000000000000000815260040180806020018281038252603881526020018061382a6038913960400191505060405180910390fd5b61102a83836122f1565b505050565b600080600c8054905014156110475760009050611053565b6001600c805490500390505b90565b61105e6122e9565b73ffffffffffffffffffffffffffffffffffffffff1661107c6116f4565b73ffffffffffffffffffffffffffffffffffffffff1614611105576040517f08c379a00000000000000000000000000000000000000000000000000000000081526004018080602001828103825260208152602001807f4f776e61626c653a2063616c6c6572206973206e6f7420746865206f776e657281525060200191505060405180910390fd5b61110f82826123aa565b5050565b600061111f6002612434565b905090565b61112c6122e9565b73ffffffffffffffffffffffffffffffffffffffff1661114a6116f4565b73ffffffffffffffffffffffffffffffffffffffff16146111d3576040517f08c379a00000000000000000000000000000000000000000000000000000000081526004018080602001828103825260208152602001807f4f776e61626c653a2063616c6c6572206973206e6f7420746865206f776e657281525060200191505060405180910390fd5b6111de838383611380565b505050565b6111f46111ee6122e9565b82612449565b611249576040517f08c379a00000000000000000000000000000000000000000000000000000000081526004018080602001828103825260318152602001806139a86031913960400191505060405180910390fd5b61125483838361253d565b505050565b6112616122e9565b73ffffffffffffffffffffffffffffffffffffffff1661127f6116f4565b73ffffffffffffffffffffffffffffffffffffffff1614611308576040517f08c379a00000000000000000000000000000000000000000000000000000000081526004018080602001828103825260208152602001807f4f776e61626c653a2063616c6c6572206973206e6f7420746865206f776e657281525060200191505060405180910390fd5b80600d60006101000a81548160ff02191690831515021790555050565b600061137882600160008673ffffffffffffffffffffffffffffffffffffffff1673ffffffffffffffffffffffffffffffffffffffff16815260200190815260200160002061278090919063ffffffff16565b905092915050565b61139b83838360405180602001604052806000815250611a2a565b505050565b600d60009054906101000a900460ff1681565b6000806113ca83600261279a90919063ffffffff16565b50905080915050919050565b60006114068260405180606001604052806029815260200161388c6029913960026127c69092919063ffffffff16565b9050919050565b606060098054600181600116156101000203166002900480601f0160208091040260200160405190810160405280929190818152602001828054600181600116156101000203166002900480156114a55780601f1061147a576101008083540402835291602001916114a5565b820191906000526020600020905b81548152906001019060200180831161148857829003601f168201915b5050505050905090565b60008073ffffffffffffffffffffffffffffffffffffffff168273ffffffffffffffffffffffffffffffffffffffff161415611536576040517f08c379a000000000000000000000000000000000000000000000000000000000815260040180806020018281038252602a815260200180613862602a913960400191505060405180910390fd5b61157d600160008473ffffffffffffffffffffffffffffffffffffffff1673ffffffffffffffffffffffffffffffffffffffff1681526020019081526020016000206127e5565b9050919050565b61158c6122e9565b73ffffffffffffffffffffffffffffffffffffffff166115aa6116f4565b73ffffffffffffffffffffffffffffffffffffffff1614611633576040517f08c379a00000000000000000000000000000000000000000000000000000000081526004018080602001828103825260208152602001807f4f776e61626c653a2063616c6c6572206973206e6f7420746865206f776e657281525060200191505060405180910390fd5b600073ffffffffffffffffffffffffffffffffffffffff16600a60009054906101000a900473ffffffffffffffffffffffffffffffffffffffff1673ffffffffffffffffffffffffffffffffffffffff167f8be0079c531659141344cd1fd0a4f28419497f9722a3daafe3b4186f6b6457e060405160405180910390a36000600a60006101000a81548173ffffffffffffffffffffffffffffffffffffffff021916908373ffffffffffffffffffffffffffffffffffffffff160217905550565b6000600a60009054906101000a900473ffffffffffffffffffffffffffffffffffffffff16905090565b606060078054600181600116156101000203166002900480601f0160208091040260200160405190810160405280929190818152602001828054600181600116156101000203166002900480156117b65780601f1061178b576101008083540402835291602001916117b6565b820191906000526020600020905b81548152906001019060200180831161179957829003601f168201915b5050505050905090565b600c81815481106117cd57fe5b90600052602060002090600302016000915090508060000154908060010154908060020154905083565b6117ff6122e9565b73ffffffffffffffffffffffffffffffffffffffff168273ffffffffffffffffffffffffffffffffffffffff1614156118a0576040517f08c379a00000000000000000000000000000000000000000000000000000000081526004018080602001828103825260198152602001807f4552433732313a20617070726f766520746f2063616c6c65720000000000000081525060200191505060405180910390fd5b80600560006118ad6122e9565b73ffffffffffffffffffffffffffffffffffffffff1673ffffffffffffffffffffffffffffffffffffffff16815260200190815260200160002060008473ffffffffffffffffffffffffffffffffffffffff1673ffffffffffffffffffffffffffffffffffffffff16815260200190815260200160002060006101000a81548160ff0219169083151502179055508173ffffffffffffffffffffffffffffffffffffffff1661195a6122e9565b73ffffffffffffffffffffffffffffffffffffffff167f17307eab39ab6107e8899845ad3d59bd9653f200f220920489ca2b5937696c318360405180821515815260200191505060405180910390a35050565b600080600060606119bc613649565b600c86815481106119c957fe5b906000526020600020906003020160405180606001604052908160008201548152602001600182015481526020016002820154815250509050806000015194508060200151935080604001519250611a2086611aa2565b9150509193509193565b611a3b611a356122e9565b83612449565b611a90576040517f08c379a00000000000000000000000000000000000000000000000000000000081526004018080602001828103825260318152602001806139a86031913960400191505060405180910390fd5b611a9c848484846127fa565b50505050565b6060611aad826122cc565b611b02576040517f08c379a000000000000000000000000000000000000000000000000000000000815260040180806020018281038252602f815260200180613958602f913960400191505060405180910390fd5b6060600860008481526020019081526020016000208054600181600116156101000203166002900480601f016020809104026020016040519081016040528092919081815260200182805460018160011615610100020316600290048015611bab5780601f10611b8057610100808354040283529160200191611bab565b820191906000526020600020905b815481529060010190602001808311611b8e57829003601f168201915b505050505090506060611bbc61140d565b9050600081511415611bd2578192505050611d6e565b600082511115611ca35780826040516020018083805190602001908083835b60208310611c145780518252602082019150602081019050602083039250611bf1565b6001836020036101000a03801982511681845116808217855250505050505090500182805190602001908083835b60208310611c655780518252602082019150602081019050602083039250611c42565b6001836020036101000a0380198251168184511680821785525050505050509050019250505060405160208183030381529060405292505050611d6e565b80611cad8561286c565b6040516020018083805190602001908083835b60208310611ce35780518252602082019150602081019050602083039250611cc0565b6001836020036101000a03801982511681845116808217855250505050505090500182805190602001908083835b60208310611d345780518252602082019150602081019050602083039250611d11565b6001836020036101000a03801982511681845116808217855250505050505090500192505050604051602081830303815290604052925050505b919050565b600060011515600d60009054906101000a900460ff16151514611de1576040517f08c379a00000000000000000000000000000000000000000000000000000000081526004018080602001828103825260328152602001806137826032913960400191505060405180910390fd5b611de96122e9565b73ffffffffffffffffffffffffffffffffffffffff16611e076116f4565b73ffffffffffffffffffffffffffffffffffffffff1614611e90576040517f08c379a00000000000000000000000000000000000000000000000000000000081526004018080602001828103825260208152602001807f4f776e61626c653a2063616c6c6572206973206e6f7420746865206f776e657281525060200191505060405180910390fd5b611e98613649565b60405180606001604052808581526020016000815260200160008152509050611ec1600b6129b3565b611ecb600b6129c9565b9150600c8190806001815401808255809150506001900390600052602060002090600302016000909190919091506000820151816000015560208201518160010155604082015181600201555050611f2385836129d7565b611f2d82846123aa565b7fcdcb4603a67944c4a4840fc4ba9e383cb3181da0cedac21027c44c61234d2a4682600c8481548110611f5c57fe5b906000526020600020906003020160000154600c8581548110611f7b57fe5b906000526020600020906003020160010154868960405180868152602001858152602001848152602001806020018373ffffffffffffffffffffffffffffffffffffffff168152602001828103825284818151815260200191508051906020019080838360005b83811015611ffd578082015181840152602081019050611fe2565b50505050905090810190601f16801561202a5780820380516001836020036101000a031916815260200191505b50965050505050505060405180910390a1509392505050565b6000600560008473ffffffffffffffffffffffffffffffffffffffff1673ffffffffffffffffffffffffffffffffffffffff16815260200190815260200160002060008373ffffffffffffffffffffffffffffffffffffffff1673ffffffffffffffffffffffffffffffffffffffff16815260200190815260200160002060009054906101000a900460ff16905092915050565b6120df6122e9565b73ffffffffffffffffffffffffffffffffffffffff166120fd6116f4565b73ffffffffffffffffffffffffffffffffffffffff1614612186576040517f08c379a00000000000000000000000000000000000000000000000000000000081526004018080602001828103825260208152602001807f4f776e61626c653a2063616c6c6572206973206e6f7420746865206f776e657281525060200191505060405180910390fd5b600073ffffffffffffffffffffffffffffffffffffffff168173ffffffffffffffffffffffffffffffffffffffff16141561220c576040517f08c379a000000000000000000000000000000000000000000000000000000000815260040180806020018281038252602681526020018061375c6026913960400191505060405180910390fd5b8073ffffffffffffffffffffffffffffffffffffffff16600a60009054906101000a900473ffffffffffffffffffffffffffffffffffffffff1673ffffffffffffffffffffffffffffffffffffffff167f8be0079c531659141344cd1fd0a4f28419497f9722a3daafe3b4186f6b6457e060405160405180910390a380600a60006101000a81548173ffffffffffffffffffffffffffffffffffffffff021916908373ffffffffffffffffffffffffffffffffffffffff16021790555050565b60006122e28260026129f590919063ffffffff16565b9050919050565b600033905090565b816004600083815260200190815260200160002060006101000a81548173ffffffffffffffffffffffffffffffffffffffff021916908373ffffffffffffffffffffffffffffffffffffffff160217905550808273ffffffffffffffffffffffffffffffffffffffff16612364836113d6565b73ffffffffffffffffffffffffffffffffffffffff167f8c5be1e5ebec7d5bd14f71427d1e84f3dd0314c0f7b2291e5b200ac8c7c3b92560405160405180910390a45050565b6123b3826122cc565b612408576040517f08c379a000000000000000000000000000000000000000000000000000000000815260040180806020018281038252602c815260200180613903602c913960400191505060405180910390fd5b8060086000848152602001908152602001600020908051906020019061242f92919061366a565b505050565b600061244282600001612a0f565b9050919050565b6000612454826122cc565b6124a9576040517f08c379a000000000000000000000000000000000000000000000000000000000815260040180806020018281038252602c8152602001806137fe602c913960400191505060405180910390fd5b60006124b4836113d6565b90508073ffffffffffffffffffffffffffffffffffffffff168473ffffffffffffffffffffffffffffffffffffffff16148061252357508373ffffffffffffffffffffffffffffffffffffffff1661250b84610e50565b73ffffffffffffffffffffffffffffffffffffffff16145b8061253457506125338185612043565b5b91505092915050565b8273ffffffffffffffffffffffffffffffffffffffff1661255d826113d6565b73ffffffffffffffffffffffffffffffffffffffff16146125c9576040517f08c379a000000000000000000000000000000000000000000000000000000000815260040180806020018281038252602981526020018061392f6029913960400191505060405180910390fd5b600073ffffffffffffffffffffffffffffffffffffffff168273ffffffffffffffffffffffffffffffffffffffff16141561264f576040517f08c379a00000000000000000000000000000000000000000000000000000000081526004018080602001828103825260248152602001806137b46024913960400191505060405180910390fd5b61265a838383612a20565b6126656000826122f1565b6126b681600160008673ffffffffffffffffffffffffffffffffffffffff1673ffffffffffffffffffffffffffffffffffffffff168152602001908152602001600020612a2590919063ffffffff16565b5061270881600160008573ffffffffffffffffffffffffffffffffffffffff1673ffffffffffffffffffffffffffffffffffffffff168152602001908152602001600020612a3f90919063ffffffff16565b5061271f81836002612a599092919063ffffffff16565b50808273ffffffffffffffffffffffffffffffffffffffff168473ffffffffffffffffffffffffffffffffffffffff167fddf252ad1be2c89b69c2b068fc378daa952ba7f163c4a11628f55a4df523b3ef60405160405180910390a4505050565b600061278f8360000183612a8e565b60001c905092915050565b6000806000806127ad8660000186612b11565b915091508160001c8160001c9350935050509250929050565b60006127d9846000018460001b84612baa565b60001c90509392505050565b60006127f382600001612ca0565b9050919050565b61280584848461253d565b61281184848484612cb1565b612866576040517f08c379a000000000000000000000000000000000000000000000000000000000815260040180806020018281038252603281526020018061372a6032913960400191505060405180910390fd5b50505050565b606060008214156128b4576040518060400160405280600181526020017f300000000000000000000000000000000000000000000000000000000000000081525090506129ae565b600082905060005b600082146128de578080600101915050600a82816128d657fe5b0491506128bc565b60608167ffffffffffffffff811180156128f757600080fd5b506040519080825280601f01601f19166020018201604052801561292a5781602001600182028036833780820191505090505b50905060006001830390508593505b600084146129a657600a848161294b57fe5b0660300160f81b8282806001900393508151811061296557fe5b60200101907effffffffffffffffffffffffffffffffffffffffffffffffffffffffffffff1916908160001a905350600a848161299e57fe5b049350612939565b819450505050505b919050565b6001816000016000828254019250508190555050565b600081600001549050919050565b6129f1828260405180602001604052806000815250612eca565b5050565b6000612a07836000018360001b612f3b565b905092915050565b600081600001805490509050919050565b505050565b6000612a37836000018360001b612f5e565b905092915050565b6000612a51836000018360001b613046565b905092915050565b6000612a85846000018460001b8473ffffffffffffffffffffffffffffffffffffffff1660001b6130b6565b90509392505050565b600081836000018054905011612aef576040517f08c379a00000000000000000000000000000000000000000000000000000000081526004018080602001828103825260228152602001806137086022913960400191505060405180910390fd5b826000018281548110612afe57fe5b9060005260206000200154905092915050565b60008082846000018054905011612b73576040517f08c379a00000000000000000000000000000000000000000000000000000000081526004018080602001828103825260228152602001806138b56022913960400191505060405180910390fd5b6000846000018481548110612b8457fe5b906000526020600020906002020190508060000154816001015492509250509250929050565b60008084600101600085815260200190815260200160002054905060008114158390612c71576040517f08c379a00000000000000000000000000000000000000000000000000000000081526004018080602001828103825283818151815260200191508051906020019080838360005b83811015612c36578082015181840152602081019050612c1b565b50505050905090810190601f168015612c635780820380516001836020036101000a031916815260200191505b509250505060405180910390fd5b50846000016001820381548110612c8457fe5b9060005260206000209060020201600101549150509392505050565b600081600001805490509050919050565b6000612cd28473ffffffffffffffffffffffffffffffffffffffff16613192565b612cdf5760019050612ec2565b6060612e4963150b7a0260e01b612cf46122e9565b888787604051602401808573ffffffffffffffffffffffffffffffffffffffff1681526020018473ffffffffffffffffffffffffffffffffffffffff16815260200183815260200180602001828103825283818151815260200191508051906020019080838360005b83811015612d78578082015181840152602081019050612d5d565b50505050905090810190601f168015612da55780820380516001836020036101000a031916815260200191505b5095505050505050604051602081830303815290604052907bffffffffffffffffffffffffffffffffffffffffffffffffffffffff19166020820180517bffffffffffffffffffffffffffffffffffffffffffffffffffffffff838183161783525050505060405180606001604052806032815260200161372a603291398773ffffffffffffffffffffffffffffffffffffffff166131a59092919063ffffffff16565b90506000818060200190516020811015612e6257600080fd5b8101908080519060200190929190505050905063150b7a0260e01b7bffffffffffffffffffffffffffffffffffffffffffffffffffffffff1916817bffffffffffffffffffffffffffffffffffffffffffffffffffffffff191614925050505b949350505050565b612ed483836131bd565b612ee16000848484612cb1565b612f36576040517f08c379a000000000000000000000000000000000000000000000000000000000815260040180806020018281038252603281526020018061372a6032913960400191505060405180910390fd5b505050565b600080836001016000848152602001908152602001600020541415905092915050565b6000808360010160008481526020019081526020016000205490506000811461303a5760006001820390506000600186600001805490500390506000866000018281548110612fa957fe5b9060005260206000200154905080876000018481548110612fc657fe5b9060005260206000200181905550600183018760010160008381526020019081526020016000208190555086600001805480612ffe57fe5b60019003818190600052602060002001600090559055866001016000878152602001908152602001600020600090556001945050505050613040565b60009150505b92915050565b600061305283836133b1565b6130ab5782600001829080600181540180825580915050600190039060005260206000200160009091909190915055826000018054905083600101600084815260200190815260200160002081905550600190506130b0565b600090505b92915050565b600080846001016000858152602001908152602001600020549050600081141561315d5784600001604051806040016040528086815260200185815250908060018154018082558091505060019003906000526020600020906002020160009091909190915060008201518160000155602082015181600101555050846000018054905085600101600086815260200190815260200160002081905550600191505061318b565b8285600001600183038154811061317057fe5b90600052602060002090600202016001018190555060009150505b9392505050565b600080823b905060008111915050919050565b60606131b484846000856133d4565b90509392505050565b600073ffffffffffffffffffffffffffffffffffffffff168273ffffffffffffffffffffffffffffffffffffffff161415613260576040517f08c379a00000000000000000000000000000000000000000000000000000000081526004018080602001828103825260208152602001807f4552433732313a206d696e7420746f20746865207a65726f206164647265737381525060200191505060405180910390fd5b613269816122cc565b156132dc576040517f08c379a000000000000000000000000000000000000000000000000000000000815260040180806020018281038252601c8152602001807f4552433732313a20746f6b656e20616c7265616479206d696e7465640000000081525060200191505060405180910390fd5b6132e860008383612a20565b61333981600160008573ffffffffffffffffffffffffffffffffffffffff1673ffffffffffffffffffffffffffffffffffffffff168152602001908152602001600020612a3f90919063ffffffff16565b5061335081836002612a599092919063ffffffff16565b50808273ffffffffffffffffffffffffffffffffffffffff16600073ffffffffffffffffffffffffffffffffffffffff167fddf252ad1be2c89b69c2b068fc378daa952ba7f163c4a11628f55a4df523b3ef60405160405180910390a45050565b600080836001016000848152602001908152602001600020541415905092915050565b60608247101561342f576040517f08c379a00000000000000000000000000000000000000000000000000000000081526004018080602001828103825260268152602001806137d86026913960400191505060405180910390fd5b61343885613192565b6134aa576040517f08c379a000000000000000000000000000000000000000000000000000000000815260040180806020018281038252601d8152602001807f416464726573733a2063616c6c20746f206e6f6e2d636f6e747261637400000081525060200191505060405180910390fd5b600060608673ffffffffffffffffffffffffffffffffffffffff1685876040518082805190602001908083835b602083106134fa57805182526020820191506020810190506020830392506134d7565b6001836020036101000a03801982511681845116808217855250505050505090500191505060006040518083038185875af1925050503d806000811461355c576040519150601f19603f3d011682016040523d82523d6000602084013e613561565b606091505b509150915061357182828661357d565b92505050949350505050565b6060831561358d57829050613642565b6000835111156135a05782518084602001fd5b816040517f08c379a00000000000000000000000000000000000000000000000000000000081526004018080602001828103825283818151815260200191508051906020019080838360005b838110156136075780820151818401526020810190506135ec565b50505050905090810190601f1680156136345780820380516001836020036101000a031916815260200191505b509250505060405180910390fd5b9392505050565b60405180606001604052806000815260200160008152602001600081525090565b828054600181600116156101000203166002900490600052602060002090601f016020900481019282601f106136ab57805160ff19168380011785556136d9565b828001600101855582156136d9579182015b828111156136d85782518255916020019190600101906136bd565b5b5090506136e691906136ea565b5090565b5b808211156137035760008160009055506001016136eb565b509056fe456e756d657261626c655365743a20696e646578206f7574206f6620626f756e64734552433732313a207472616e7366657220746f206e6f6e20455243373231526563656976657220696d706c656d656e7465724f776e61626c653a206e6577206f776e657220697320746865207a65726f20616464726573734e657720626164676520617265206e6f206c6f6e676572206d696e7461626c65206f6e207468697320636f6e74726163742e4552433732313a207472616e7366657220746f20746865207a65726f2061646472657373416464726573733a20696e73756666696369656e742062616c616e636520666f722063616c6c4552433732313a206f70657261746f7220717565727920666f72206e6f6e6578697374656e7420746f6b656e4552433732313a20617070726f76652063616c6c6572206973206e6f74206f776e6572206e6f7220617070726f76656420666f7220616c6c4552433732313a2062616c616e636520717565727920666f7220746865207a65726f20616464726573734552433732313a206f776e657220717565727920666f72206e6f6e6578697374656e7420746f6b656e456e756d657261626c654d61703a20696e646578206f7574206f6620626f756e64734552433732313a20617070726f76656420717565727920666f72206e6f6e6578697374656e7420746f6b656e4552433732314d657461646174613a2055524920736574206f66206e6f6e6578697374656e7420746f6b656e4552433732313a207472616e73666572206f6620746f6b656e2074686174206973206e6f74206f776e4552433732314d657461646174613a2055524920717565727920666f72206e6f6e6578697374656e7420746f6b656e4552433732313a20617070726f76616c20746f2063757272656e74206f776e65724552433732313a207472616e736665722063616c6c6572206973206e6f74206f776e6572206e6f7220617070726f766564a2646970667358221220cd698179aae31e9b373fd8fbf3a00c2905486b6e9280ab188dfe0dc4a0ca8dd264736f6c63430007030033",
  "linkReferences": {},
  "deployedLinkReferences": {}
}