{
  "_format": "hh-sol-artifact-1",
  "contractName": "Badges",
  "sourceName": "contracts/Badges.sol",
  "abi": [
    {
      "inputs": [],
      "stateMutability": "nonpayable",
      "type": "constructor"
    },
    {
      "anonymous": false,
      "inputs": [
        {
          "indexed": true,
          "internalType": "address",
          "name": "owner",
          "type": "address"
        },
        {
          "indexed": true,
          "internalType": "address",
          "name": "approved",
          "type": "address"
        },
        {
          "indexed": true,
          "internalType": "uint256",
          "name": "tokenId",
          "type": "uint256"
        }
      ],
      "name": "Approval",
      "type": "event"
    },
    {
      "anonymous": false,
      "inputs": [
        {
          "indexed": true,
          "internalType": "address",
          "name": "owner",
          "type": "address"
        },
        {
          "indexed": true,
          "internalType": "address",
          "name": "operator",
          "type": "address"
        },
        {
          "indexed": false,
          "internalType": "bool",
          "name": "approved",
          "type": "bool"
        }
      ],
      "name": "ApprovalForAll",
      "type": "event"
    },
    {
      "anonymous": false,
      "inputs": [
        {
          "indexed": true,
          "internalType": "address",
          "name": "previousOwner",
          "type": "address"
        },
        {
          "indexed": true,
          "internalType": "address",
          "name": "newOwner",
          "type": "address"
        }
      ],
      "name": "OwnershipTransferred",
      "type": "event"
    },
    {
      "anonymous": false,
      "inputs": [
        {
          "indexed": true,
          "internalType": "address",
          "name": "from",
          "type": "address"
        },
        {
          "indexed": true,
          "internalType": "address",
          "name": "to",
          "type": "address"
        },
        {
          "indexed": true,
          "internalType": "uint256",
          "name": "tokenId",
          "type": "uint256"
        }
      ],
      "name": "Transfer",
      "type": "event"
    },
    {
      "inputs": [
        {
          "internalType": "address",
          "name": "to",
          "type": "address"
        },
        {
          "internalType": "uint256",
          "name": "tokenId",
          "type": "uint256"
        }
      ],
      "name": "approve",
      "outputs": [],
      "stateMutability": "nonpayable",
      "type": "function"
    },
    {
      "inputs": [
        {
          "internalType": "uint256",
          "name": "",
          "type": "uint256"
        }
      ],
      "name": "badges",
      "outputs": [
        {
          "internalType": "uint256",
          "name": "numClonesAllowed",
          "type": "uint256"
        },
        {
          "internalType": "uint256",
          "name": "numClonesInWild",
          "type": "uint256"
        },
        {
          "internalType": "uint256",
          "name": "cloneFromId",
          "type": "uint256"
        }
      ],
      "stateMutability": "view",
      "type": "function"
    },
    {
      "inputs": [
        {
          "internalType": "address",
          "name": "owner",
          "type": "address"
        }
      ],
      "name": "balanceOf",
      "outputs": [
        {
          "internalType": "uint256",
          "name": "",
          "type": "uint256"
        }
      ],
      "stateMutability": "view",
      "type": "function"
    },
    {
      "inputs": [],
      "name": "baseURI",
      "outputs": [
        {
          "internalType": "string",
          "name": "",
          "type": "string"
        }
      ],
      "stateMutability": "view",
      "type": "function"
    },
    {
      "inputs": [
        {
          "internalType": "uint256",
          "name": "_tokenId",
          "type": "uint256"
        }
      ],
      "name": "burn",
      "outputs": [],
      "stateMutability": "nonpayable",
      "type": "function"
    },
    {
      "inputs": [
        {
          "internalType": "address",
          "name": "_to",
          "type": "address"
        },
        {
          "internalType": "uint256",
          "name": "_tokenId",
          "type": "uint256"
        },
        {
          "internalType": "uint256",
          "name": "_numClonesRequested",
          "type": "uint256"
        }
      ],
      "name": "clone",
      "outputs": [],
      "stateMutability": "nonpayable",
      "type": "function"
    },
    {
      "inputs": [
        {
          "internalType": "uint256",
          "name": "tokenId",
          "type": "uint256"
        }
      ],
      "name": "getApproved",
      "outputs": [
        {
          "internalType": "address",
          "name": "",
          "type": "address"
        }
      ],
      "stateMutability": "view",
      "type": "function"
    },
    {
      "inputs": [
        {
          "internalType": "uint256",
          "name": "_tokenId",
          "type": "uint256"
        }
      ],
      "name": "getBadgeById",
      "outputs": [
        {
          "internalType": "uint256",
          "name": "numClonesAllowed",
          "type": "uint256"
        },
        {
          "internalType": "uint256",
          "name": "numClonesInWild",
          "type": "uint256"
        },
        {
          "internalType": "uint256",
          "name": "cloneFromId",
          "type": "uint256"
        },
        {
          "internalType": "string",
          "name": "tokenUriInfo",
          "type": "string"
        }
      ],
      "stateMutability": "view",
      "type": "function"
    },
    {
      "inputs": [],
      "name": "getLatestBadgeId",
      "outputs": [
        {
          "internalType": "uint256",
          "name": "tokenId",
          "type": "uint256"
        }
      ],
      "stateMutability": "view",
      "type": "function"
    },
    {
      "inputs": [
        {
          "internalType": "uint256",
          "name": "_tokenId",
          "type": "uint256"
        }
      ],
      "name": "getOriginalToCloneMapping",
      "outputs": [
        {
          "internalType": "uint256[]",
          "name": "",
          "type": "uint256[]"
        }
      ],
      "stateMutability": "view",
      "type": "function"
    },
    {
      "inputs": [
        {
          "internalType": "address",
          "name": "owner",
          "type": "address"
        },
        {
          "internalType": "address",
          "name": "operator",
          "type": "address"
        }
      ],
      "name": "isApprovedForAll",
      "outputs": [
        {
          "internalType": "bool",
          "name": "",
          "type": "bool"
        }
      ],
      "stateMutability": "view",
      "type": "function"
    },
    {
      "inputs": [],
      "name": "isMintable",
      "outputs": [
        {
          "internalType": "bool",
          "name": "",
          "type": "bool"
        }
      ],
      "stateMutability": "view",
      "type": "function"
    },
    {
      "inputs": [
        {
          "internalType": "address",
          "name": "_to",
          "type": "address"
        },
        {
          "internalType": "uint256",
          "name": "_numClonesAllowed",
          "type": "uint256"
        },
        {
          "internalType": "string",
          "name": "_tokenUri",
          "type": "string"
        }
      ],
      "name": "mint",
      "outputs": [
        {
          "internalType": "uint256",
          "name": "tokenId",
          "type": "uint256"
        }
      ],
      "stateMutability": "nonpayable",
      "type": "function"
    },
    {
      "inputs": [],
      "name": "name",
      "outputs": [
        {
          "internalType": "string",
          "name": "",
          "type": "string"
        }
      ],
      "stateMutability": "view",
      "type": "function"
    },
    {
      "inputs": [
        {
          "internalType": "uint256",
          "name": "",
          "type": "uint256"
        },
        {
          "internalType": "uint256",
          "name": "",
          "type": "uint256"
        }
      ],
      "name": "originalToClones",
      "outputs": [
        {
          "internalType": "uint256",
          "name": "",
          "type": "uint256"
        }
      ],
      "stateMutability": "view",
      "type": "function"
    },
    {
      "inputs": [],
      "name": "owner",
      "outputs": [
        {
          "internalType": "address",
          "name": "",
          "type": "address"
        }
      ],
      "stateMutability": "view",
      "type": "function"
    },
    {
      "inputs": [
        {
          "internalType": "uint256",
          "name": "tokenId",
          "type": "uint256"
        }
      ],
      "name": "ownerOf",
      "outputs": [
        {
          "internalType": "address",
          "name": "",
          "type": "address"
        }
      ],
      "stateMutability": "view",
      "type": "function"
    },
    {
      "inputs": [],
      "name": "renounceOwnership",
      "outputs": [],
      "stateMutability": "nonpayable",
      "type": "function"
    },
    {
      "inputs": [
        {
          "internalType": "address",
          "name": "from",
          "type": "address"
        },
        {
          "internalType": "address",
          "name": "to",
          "type": "address"
        },
        {
          "internalType": "uint256",
          "name": "tokenId",
          "type": "uint256"
        }
      ],
      "name": "safeTransferFrom",
      "outputs": [],
      "stateMutability": "nonpayable",
      "type": "function"
    },
    {
      "inputs": [
        {
          "internalType": "address",
          "name": "from",
          "type": "address"
        },
        {
          "internalType": "address",
          "name": "to",
          "type": "address"
        },
        {
          "internalType": "uint256",
          "name": "tokenId",
          "type": "uint256"
        },
        {
          "internalType": "bytes",
          "name": "_data",
          "type": "bytes"
        }
      ],
      "name": "safeTransferFrom",
      "outputs": [],
      "stateMutability": "nonpayable",
      "type": "function"
    },
    {
      "inputs": [
        {
          "internalType": "address",
          "name": "_from",
          "type": "address"
        },
        {
          "internalType": "address",
          "name": "_to",
          "type": "address"
        },
        {
          "internalType": "uint256",
          "name": "_tokenId",
          "type": "uint256"
        }
      ],
      "name": "sendBadge",
      "outputs": [],
      "stateMutability": "nonpayable",
      "type": "function"
    },
    {
      "inputs": [
        {
          "internalType": "address",
          "name": "operator",
          "type": "address"
        },
        {
          "internalType": "bool",
          "name": "approved",
          "type": "bool"
        }
      ],
      "name": "setApprovalForAll",
      "outputs": [],
      "stateMutability": "nonpayable",
      "type": "function"
    },
    {
      "inputs": [
        {
          "internalType": "bool",
          "name": "_isMintable",
          "type": "bool"
        }
      ],
      "name": "setMintable",
      "outputs": [],
      "stateMutability": "nonpayable",
      "type": "function"
    },
    {
      "inputs": [
        {
          "internalType": "uint256",
          "name": "_tokenId",
          "type": "uint256"
        },
        {
          "internalType": "string",
          "name": "_tokenURI",
          "type": "string"
        }
      ],
      "name": "setTokenURI",
      "outputs": [],
      "stateMutability": "nonpayable",
      "type": "function"
    },
    {
      "inputs": [
        {
          "internalType": "bytes4",
          "name": "interfaceId",
          "type": "bytes4"
        }
      ],
      "name": "supportsInterface",
      "outputs": [
        {
          "internalType": "bool",
          "name": "",
          "type": "bool"
        }
      ],
      "stateMutability": "view",
      "type": "function"
    },
    {
      "inputs": [],
      "name": "symbol",
      "outputs": [
        {
          "internalType": "string",
          "name": "",
          "type": "string"
        }
      ],
      "stateMutability": "view",
      "type": "function"
    },
    {
      "inputs": [
        {
          "internalType": "uint256",
          "name": "index",
          "type": "uint256"
        }
      ],
      "name": "tokenByIndex",
      "outputs": [
        {
          "internalType": "uint256",
          "name": "",
          "type": "uint256"
        }
      ],
      "stateMutability": "view",
      "type": "function"
    },
    {
      "inputs": [
        {
          "internalType": "address",
          "name": "owner",
          "type": "address"
        },
        {
          "internalType": "uint256",
          "name": "index",
          "type": "uint256"
        }
      ],
      "name": "tokenOfOwnerByIndex",
      "outputs": [
        {
          "internalType": "uint256",
          "name": "",
          "type": "uint256"
        }
      ],
      "stateMutability": "view",
      "type": "function"
    },
    {
      "inputs": [
        {
          "internalType": "uint256",
          "name": "tokenId",
          "type": "uint256"
        }
      ],
      "name": "tokenURI",
      "outputs": [
        {
          "internalType": "string",
          "name": "",
          "type": "string"
        }
      ],
      "stateMutability": "view",
      "type": "function"
    },
    {
      "inputs": [],
      "name": "totalSupply",
      "outputs": [
        {
          "internalType": "uint256",
          "name": "",
          "type": "uint256"
        }
      ],
      "stateMutability": "view",
      "type": "function"
    },
    {
      "inputs": [
        {
          "internalType": "address",
          "name": "from",
          "type": "address"
        },
        {
          "internalType": "address",
          "name": "to",
          "type": "address"
        },
        {
          "internalType": "uint256",
          "name": "tokenId",
          "type": "uint256"
        }
      ],
      "name": "transferFrom",
      "outputs": [],
      "stateMutability": "nonpayable",
      "type": "function"
    },
    {
      "inputs": [
        {
          "internalType": "address",
          "name": "newOwner",
          "type": "address"
        }
      ],
      "name": "transferOwnership",
      "outputs": [],
      "stateMutability": "nonpayable",
      "type": "function"
    }
  ],
  "bytecode": "0x60806040526001600e60006101000a81548160ff0219169083151502179055503480156200002c57600080fd5b506040518060400160405280601981526020017f466967687450616e64656d6963732e636f6d20426164676573000000000000008152506040518060400160405280600381526020017f4650420000000000000000000000000000000000000000000000000000000000815250620000b16301ffc9a760e01b6200026b60201b60201c565b8160069080519060200190620000c99291906200037c565b508060079080519060200190620000e29291906200037c565b50620000fb6380ac58cd60e01b6200026b60201b60201c565b62000113635b5e139f60e01b6200026b60201b60201c565b6200012b63780e9d6360e01b6200026b60201b60201c565b505060006200013f6200037460201b60201c565b905080600a60006101000a81548173ffffffffffffffffffffffffffffffffffffffff021916908373ffffffffffffffffffffffffffffffffffffffff1602179055508073ffffffffffffffffffffffffffffffffffffffff16600073ffffffffffffffffffffffffffffffffffffffff167f8be0079c531659141344cd1fd0a4f28419497f9722a3daafe3b4186f6b6457e060405160405180910390a3506000600c8054905014156200026557620001f762000403565b6040518060600160405280600081526020016000815260200160008152509050600c8190806001815401808255809150506001900390600052602060002090600302016000909190919091506000820151816000015560208201518160010155604082015181600201555050505b62000443565b63ffffffff60e01b817bffffffffffffffffffffffffffffffffffffffffffffffffffffffff1916141562000308576040517f08c379a000000000000000000000000000000000000000000000000000000000815260040180806020018281038252601c8152602001807f4552433136353a20696e76616c696420696e746572666163652069640000000081525060200191505060405180910390fd5b6001600080837bffffffffffffffffffffffffffffffffffffffffffffffffffffffff19167bffffffffffffffffffffffffffffffffffffffffffffffffffffffff1916815260200190815260200160002060006101000a81548160ff02191690831515021790555050565b600033905090565b828054600181600116156101000203166002900490600052602060002090601f016020900481019282601f10620003bf57805160ff1916838001178555620003f0565b82800160010185558215620003f0579182015b82811115620003ef578251825591602001919060010190620003d2565b5b509050620003ff919062000424565b5090565b60405180606001604052806000815260200160008152602001600081525090565b5b808211156200043f57600081600090555060010162000425565b5090565b61436280620004536000396000f3fe608060405234801561001057600080fd5b50600436106101f05760003560e01c80636352211e1161010f578063b4857ad4116100a2578063e985e9c511610071578063e985e9c514610d2f578063ed74de9d14610da9578063f2fde38b14610e01578063f3ea867d14610e45576101f0565b8063b4857ad4146109ce578063b88d4fde14610a8a578063c87b56dd14610b8f578063d3fc986414610c36576101f0565b80638da5cb5b116100de5780638da5cb5b1461087757806395d89b41146108ab57806398e36d8b1461092e578063a22cb4651461097e576101f0565b80636352211e1461073a5780636c0360eb1461079257806370a0823114610815578063715018a61461086d576101f0565b806323b872dd1161018757806342842e0e1161015657806342842e0e1461063c57806342966c68146106aa57806346b45af7146106d85780634f6ccce7146106f8576101f0565b806323b872dd146104f0578063285d70d41461055e5780632f745c591461058e5780633acd13ae146105f0576101f0565b806312745bfd116101c357806312745bfd14610381578063162094c41461039f57806318160ddd1461046457806319f259bf14610482576101f0565b806301ffc9a7146101f557806306fdde0314610258578063081812fc146102db578063095ea7b314610333575b600080fd5b6102406004803603602081101561020b57600080fd5b8101908080357bffffffffffffffffffffffffffffffffffffffffffffffffffffffff19169060200190929190505050610ec8565b60405180821515815260200191505060405180910390f35b610260610f2f565b6040518080602001828103825283818151815260200191508051906020019080838360005b838110156102a0578082015181840152602081019050610285565b50505050905090810190601f1680156102cd5780820380516001836020036101000a031916815260200191505b509250505060405180910390f35b610307600480360360208110156102f157600080fd5b8101908080359060200190929190505050610fd1565b604051808273ffffffffffffffffffffffffffffffffffffffff16815260200191505060405180910390f35b61037f6004803603604081101561034957600080fd5b81019080803573ffffffffffffffffffffffffffffffffffffffff1690602001909291908035906020019092919050505061106c565b005b6103896111b0565b6040518082815260200191505060405180910390f35b610462600480360360408110156103b557600080fd5b8101908080359060200190929190803590602001906401000000008111156103dc57600080fd5b8201836020820111156103ee57600080fd5b8035906020019184600183028401116401000000008311171561041057600080fd5b91908080601f016020809104026020016040519081016040528093929190818152602001838380828437600081840152601f19601f8201169050808301925050505050505091929192905050506111d7565b005b61046c611294565b6040518082815260200191505060405180910390f35b6104ee6004803603606081101561049857600080fd5b81019080803573ffffffffffffffffffffffffffffffffffffffff169060200190929190803573ffffffffffffffffffffffffffffffffffffffff169060200190929190803590602001909291905050506112a5565b005b61055c6004803603606081101561050657600080fd5b81019080803573ffffffffffffffffffffffffffffffffffffffff169060200190929190803573ffffffffffffffffffffffffffffffffffffffff16906020019092919080359060200190929190505050611364565b005b61058c6004803603602081101561057457600080fd5b810190808035151590602001909291905050506113da565b005b6105da600480360360408110156105a457600080fd5b81019080803573ffffffffffffffffffffffffffffffffffffffff169060200190929190803590602001909291905050506114a6565b6040518082815260200191505060405180910390f35b6106266004803603604081101561060657600080fd5b810190808035906020019092919080359060200190929190505050611501565b6040518082815260200191505060405180910390f35b6106a86004803603606081101561065257600080fd5b81019080803573ffffffffffffffffffffffffffffffffffffffff169060200190929190803573ffffffffffffffffffffffffffffffffffffffff1690602001909291908035906020019092919050505061152f565b005b6106d6600480360360208110156106c057600080fd5b810190808035906020019092919050505061154f565b005b6106e061173e565b60405180821515815260200191505060405180910390f35b6107246004803603602081101561070e57600080fd5b8101908080359060200190929190505050611751565b6040518082815260200191505060405180910390f35b6107666004803603602081101561075057600080fd5b8101908080359060200190929190505050611774565b604051808273ffffffffffffffffffffffffffffffffffffffff16815260200191505060405180910390f35b61079a6117ab565b6040518080602001828103825283818151815260200191508051906020019080838360005b838110156107da5780820151818401526020810190506107bf565b50505050905090810190601f1680156108075780820380516001836020036101000a031916815260200191505b509250505060405180910390f35b6108576004803603602081101561082b57600080fd5b81019080803573ffffffffffffffffffffffffffffffffffffffff16906020019092919050505061184d565b6040518082815260200191505060405180910390f35b610875611922565b005b61087f611a92565b604051808273ffffffffffffffffffffffffffffffffffffffff16815260200191505060405180910390f35b6108b3611abc565b6040518080602001828103825283818151815260200191508051906020019080838360005b838110156108f35780820151818401526020810190506108d8565b50505050905090810190601f1680156109205780820380516001836020036101000a031916815260200191505b509250505060405180910390f35b61095a6004803603602081101561094457600080fd5b8101908080359060200190929190505050611b5e565b60405180848152602001838152602001828152602001935050505060405180910390f35b6109cc6004803603604081101561099457600080fd5b81019080803573ffffffffffffffffffffffffffffffffffffffff169060200190929190803515159060200190929190505050611b95565b005b6109fa600480360360208110156109e457600080fd5b8101908080359060200190929190505050611d4b565b6040518085815260200184815260200183815260200180602001828103825283818151815260200191508051906020019080838360005b83811015610a4c578082015181840152602081019050610a31565b50505050905090810190601f168015610a795780820380516001836020036101000a031916815260200191505b509550505050505060405180910390f35b610b8d60048036036080811015610aa057600080fd5b81019080803573ffffffffffffffffffffffffffffffffffffffff169060200190929190803573ffffffffffffffffffffffffffffffffffffffff1690602001909291908035906020019092919080359060200190640100000000811115610b0757600080fd5b820183602082011115610b1957600080fd5b80359060200191846001830284011164010000000083111715610b3b57600080fd5b91908080601f016020809104026020016040519081016040528093929190818152602001838380828437600081840152601f19601f820116905080830192505050505050509192919290505050611dc8565b005b610bbb60048036036020811015610ba557600080fd5b8101908080359060200190929190505050611e40565b6040518080602001828103825283818151815260200191508051906020019080838360005b83811015610bfb578082015181840152602081019050610be0565b50505050905090810190601f168015610c285780820380516001836020036101000a031916815260200191505b509250505060405180910390f35b610d1960048036036060811015610c4c57600080fd5b81019080803573ffffffffffffffffffffffffffffffffffffffff1690602001909291908035906020019092919080359060200190640100000000811115610c9357600080fd5b820183602082011115610ca557600080fd5b80359060200191846001830284011164010000000083111715610cc757600080fd5b91908080601f016020809104026020016040519081016040528093929190818152602001838380828437600081840152601f19601f820116905080830192505050505050509192919290505050612111565b6040518082815260200191505060405180910390f35b610d9160048036036040811015610d4557600080fd5b81019080803573ffffffffffffffffffffffffffffffffffffffff169060200190929190803573ffffffffffffffffffffffffffffffffffffffff1690602001909291905050506122f6565b60405180821515815260200191505060405180910390f35b610dff60048036036060811015610dbf57600080fd5b81019080803573ffffffffffffffffffffffffffffffffffffffff169060200190929190803590602001909291908035906020019092919050505061238a565b005b610e4360048036036020811015610e1757600080fd5b81019080803573ffffffffffffffffffffffffffffffffffffffff16906020019092919050505061268a565b005b610e7160048036036020811015610e5b57600080fd5b810190808035906020019092919050505061287f565b6040518080602001828103825283818151815260200191508051906020019060200280838360005b83811015610eb4578082015181840152602081019050610e99565b505050509050019250505060405180910390f35b6000806000837bffffffffffffffffffffffffffffffffffffffffffffffffffffffff19167bffffffffffffffffffffffffffffffffffffffffffffffffffffffff1916815260200190815260200160002060009054906101000a900460ff169050919050565b606060068054600181600116156101000203166002900480601f016020809104026020016040519081016040528092919081815260200182805460018160011615610100020316600290048015610fc75780601f10610f9c57610100808354040283529160200191610fc7565b820191906000526020600020905b815481529060010190602001808311610faa57829003601f168201915b5050505050905090565b6000610fdc826128ea565b611031576040517f08c379a000000000000000000000000000000000000000000000000000000000815260040180806020018281038252602c8152602001806141f7602c913960400191505060405180910390fd5b6004600083815260200190815260200160002060009054906101000a900473ffffffffffffffffffffffffffffffffffffffff169050919050565b600061107782611774565b90508073ffffffffffffffffffffffffffffffffffffffff168373ffffffffffffffffffffffffffffffffffffffff1614156110fe576040517f08c379a00000000000000000000000000000000000000000000000000000000081526004018080602001828103825260218152602001806142db6021913960400191505060405180910390fd5b8073ffffffffffffffffffffffffffffffffffffffff1661111d612907565b73ffffffffffffffffffffffffffffffffffffffff16148061114c575061114b81611146612907565b6122f6565b5b6111a1576040517f08c379a000000000000000000000000000000000000000000000000000000000815260040180806020018281038252603881526020018061414a6038913960400191505060405180910390fd5b6111ab838361290f565b505050565b600080600c8054905014156111c857600090506111d4565b6001600c805490500390505b90565b6111df612907565b73ffffffffffffffffffffffffffffffffffffffff166111fd611a92565b73ffffffffffffffffffffffffffffffffffffffff1614611286576040517f08c379a00000000000000000000000000000000000000000000000000000000081526004018080602001828103825260208152602001807f4f776e61626c653a2063616c6c6572206973206e6f7420746865206f776e657281525060200191505060405180910390fd5b61129082826129c8565b5050565b60006112a06002612a52565b905090565b6112ad612907565b73ffffffffffffffffffffffffffffffffffffffff166112cb611a92565b73ffffffffffffffffffffffffffffffffffffffff1614611354576040517f08c379a00000000000000000000000000000000000000000000000000000000081526004018080602001828103825260208152602001807f4f776e61626c653a2063616c6c6572206973206e6f7420746865206f776e657281525060200191505060405180910390fd5b61135f83838361152f565b505050565b61137561136f612907565b82612a67565b6113ca576040517f08c379a00000000000000000000000000000000000000000000000000000000081526004018080602001828103825260318152602001806142fc6031913960400191505060405180910390fd5b6113d5838383612b5b565b505050565b6113e2612907565b73ffffffffffffffffffffffffffffffffffffffff16611400611a92565b73ffffffffffffffffffffffffffffffffffffffff1614611489576040517f08c379a00000000000000000000000000000000000000000000000000000000081526004018080602001828103825260208152602001807f4f776e61626c653a2063616c6c6572206973206e6f7420746865206f776e657281525060200191505060405180910390fd5b80600e60006101000a81548160ff02191690831515021790555050565b60006114f982600160008673ffffffffffffffffffffffffffffffffffffffff1673ffffffffffffffffffffffffffffffffffffffff168152602001908152602001600020612d9e90919063ffffffff16565b905092915050565b600d602052816000526040600020818154811061151a57fe5b90600052602060002001600091509150505481565b61154a83838360405180602001604052806000815250611dc8565b505050565b611557612907565b73ffffffffffffffffffffffffffffffffffffffff16611575611a92565b73ffffffffffffffffffffffffffffffffffffffff16146115fe576040517f08c379a00000000000000000000000000000000000000000000000000000000081526004018080602001828103825260208152602001807f4f776e61626c653a2063616c6c6572206973206e6f7420746865206f776e657281525060200191505060405180910390fd5b611606613ed4565b600c828154811061161357fe5b9060005260206000209060030201604051806060016040529081600082015481526020016001820154815260200160028201548152505090506000816040015190508083146116fa57611664613ed4565b600c828154811061167157fe5b906000526020600020906003020160405180606001604052908160008201548152602001600182015481526020016002820154815250509050600181602001818151039150818152505080600c83815481106116c957fe5b9060005260206000209060030201600082015181600001556020820151816001015560408201518160020155905050505b600c838154811061170757fe5b906000526020600020906003020160008082016000905560018201600090556002820160009055505061173983612db8565b505050565b600e60009054906101000a900460ff1681565b600080611768836002612ef290919063ffffffff16565b50905080915050919050565b60006117a4826040518060600160405280602981526020016141ac602991396002612f1e9092919063ffffffff16565b9050919050565b606060098054600181600116156101000203166002900480601f0160208091040260200160405190810160405280929190818152602001828054600181600116156101000203166002900480156118435780601f1061181857610100808354040283529160200191611843565b820191906000526020600020905b81548152906001019060200180831161182657829003601f168201915b5050505050905090565b60008073ffffffffffffffffffffffffffffffffffffffff168273ffffffffffffffffffffffffffffffffffffffff1614156118d4576040517f08c379a000000000000000000000000000000000000000000000000000000000815260040180806020018281038252602a815260200180614182602a913960400191505060405180910390fd5b61191b600160008473ffffffffffffffffffffffffffffffffffffffff1673ffffffffffffffffffffffffffffffffffffffff168152602001908152602001600020612f3d565b9050919050565b61192a612907565b73ffffffffffffffffffffffffffffffffffffffff16611948611a92565b73ffffffffffffffffffffffffffffffffffffffff16146119d1576040517f08c379a00000000000000000000000000000000000000000000000000000000081526004018080602001828103825260208152602001807f4f776e61626c653a2063616c6c6572206973206e6f7420746865206f776e657281525060200191505060405180910390fd5b600073ffffffffffffffffffffffffffffffffffffffff16600a60009054906101000a900473ffffffffffffffffffffffffffffffffffffffff1673ffffffffffffffffffffffffffffffffffffffff167f8be0079c531659141344cd1fd0a4f28419497f9722a3daafe3b4186f6b6457e060405160405180910390a36000600a60006101000a81548173ffffffffffffffffffffffffffffffffffffffff021916908373ffffffffffffffffffffffffffffffffffffffff160217905550565b6000600a60009054906101000a900473ffffffffffffffffffffffffffffffffffffffff16905090565b606060078054600181600116156101000203166002900480601f016020809104026020016040519081016040528092919081815260200182805460018160011615610100020316600290048015611b545780601f10611b2957610100808354040283529160200191611b54565b820191906000526020600020905b815481529060010190602001808311611b3757829003601f168201915b5050505050905090565b600c8181548110611b6b57fe5b90600052602060002090600302016000915090508060000154908060010154908060020154905083565b611b9d612907565b73ffffffffffffffffffffffffffffffffffffffff168273ffffffffffffffffffffffffffffffffffffffff161415611c3e576040517f08c379a00000000000000000000000000000000000000000000000000000000081526004018080602001828103825260198152602001807f4552433732313a20617070726f766520746f2063616c6c65720000000000000081525060200191505060405180910390fd5b8060056000611c4b612907565b73ffffffffffffffffffffffffffffffffffffffff1673ffffffffffffffffffffffffffffffffffffffff16815260200190815260200160002060008473ffffffffffffffffffffffffffffffffffffffff1673ffffffffffffffffffffffffffffffffffffffff16815260200190815260200160002060006101000a81548160ff0219169083151502179055508173ffffffffffffffffffffffffffffffffffffffff16611cf8612907565b73ffffffffffffffffffffffffffffffffffffffff167f17307eab39ab6107e8899845ad3d59bd9653f200f220920489ca2b5937696c318360405180821515815260200191505060405180910390a35050565b60008060006060611d5a613ed4565b600c8681548110611d6757fe5b906000526020600020906003020160405180606001604052908160008201548152602001600182015481526020016002820154815250509050806000015194508060200151935080604001519250611dbe86611e40565b9150509193509193565b611dd9611dd3612907565b83612a67565b611e2e576040517f08c379a00000000000000000000000000000000000000000000000000000000081526004018080602001828103825260318152602001806142fc6031913960400191505060405180910390fd5b611e3a84848484612f52565b50505050565b6060611e4b826128ea565b611ea0576040517f08c379a000000000000000000000000000000000000000000000000000000000815260040180806020018281038252602f8152602001806142ac602f913960400191505060405180910390fd5b6060600860008481526020019081526020016000208054600181600116156101000203166002900480601f016020809104026020016040519081016040528092919081815260200182805460018160011615610100020316600290048015611f495780601f10611f1e57610100808354040283529160200191611f49565b820191906000526020600020905b815481529060010190602001808311611f2c57829003601f168201915b505050505090506060611f5a6117ab565b9050600081511415611f7057819250505061210c565b6000825111156120415780826040516020018083805190602001908083835b60208310611fb25780518252602082019150602081019050602083039250611f8f565b6001836020036101000a03801982511681845116808217855250505050505090500182805190602001908083835b602083106120035780518252602082019150602081019050602083039250611fe0565b6001836020036101000a038019825116818451168082178552505050505050905001925050506040516020818303038152906040529250505061210c565b8061204b85612fc4565b6040516020018083805190602001908083835b60208310612081578051825260208201915060208101905060208303925061205e565b6001836020036101000a03801982511681845116808217855250505050505090500182805190602001908083835b602083106120d257805182526020820191506020810190506020830392506120af565b6001836020036101000a03801982511681845116808217855250505050505090500192505050604051602081830303815290604052925050505b919050565b600060011515600e60009054906101000a900460ff1615151461217f576040517f08c379a00000000000000000000000000000000000000000000000000000000081526004018080602001828103825260328152602001806140a26032913960400191505060405180910390fd5b612187612907565b73ffffffffffffffffffffffffffffffffffffffff166121a5611a92565b73ffffffffffffffffffffffffffffffffffffffff161461222e576040517f08c379a00000000000000000000000000000000000000000000000000000000081526004018080602001828103825260208152602001807f4f776e61626c653a2063616c6c6572206973206e6f7420746865206f776e657281525060200191505060405180910390fd5b612236613ed4565b6040518060600160405280858152602001600081526020016000815250905061225f600b61310b565b612269600b613121565b9150600c819080600181540180825580915050600190039060005260206000209060030201600090919091909150600082015181600001556020820151816001015560408201518160020155505081600c83815481106122c557fe5b9060005260206000209060030201600201819055506122e4858361312f565b6122ee82846129c8565b509392505050565b6000600560008473ffffffffffffffffffffffffffffffffffffffff1673ffffffffffffffffffffffffffffffffffffffff16815260200190815260200160002060008373ffffffffffffffffffffffffffffffffffffffff1673ffffffffffffffffffffffffffffffffffffffff16815260200190815260200160002060009054906101000a900460ff16905092915050565b60011515600e60009054906101000a900460ff161515146123f6576040517f08c379a00000000000000000000000000000000000000000000000000000000081526004018080602001828103825260328152602001806140a26032913960400191505060405180910390fd5b6123fe612907565b73ffffffffffffffffffffffffffffffffffffffff1661241c611a92565b73ffffffffffffffffffffffffffffffffffffffff16146124a5576040517f08c379a00000000000000000000000000000000000000000000000000000000081526004018080602001828103825260208152602001807f4f776e61626c653a2063616c6c6572206973206e6f7420746865206f776e657281525060200191505060405180910390fd5b6124ad613ed4565b600c83815481106124ba57fe5b9060005260206000209060030201604051806060016040529081600082015481526020016001820154815260200160028201548152505090508060000151828260200151011115612556576040517f08c379a000000000000000000000000000000000000000000000000000000000815260040180806020018281038252603481526020018061424f6034913960400191505060405180910390fd5b60608267ffffffffffffffff8111801561256f57600080fd5b5060405190808252806020026020018201604052801561259e5781602001602082028036833780820191505090505b5090508282602001818151019150818152505081600c85815481106125bf57fe5b906000526020600020906003020160008201518160000155602082015181600101556040820151816002015590505060005b8381101561265a57612603600b61310b565b600061260f600b613121565b90508083838151811061261e57fe5b602002602001018181525050612634878261312f565b606061263f87611e40565b905061264b82826129c8565b505080806001019150506125f1565b5080600d60008681526020019081526020016000209080519060200190612682929190613ef5565b505050505050565b612692612907565b73ffffffffffffffffffffffffffffffffffffffff166126b0611a92565b73ffffffffffffffffffffffffffffffffffffffff1614612739576040517f08c379a00000000000000000000000000000000000000000000000000000000081526004018080602001828103825260208152602001807f4f776e61626c653a2063616c6c6572206973206e6f7420746865206f776e657281525060200191505060405180910390fd5b600073ffffffffffffffffffffffffffffffffffffffff168173ffffffffffffffffffffffffffffffffffffffff1614156127bf576040517f08c379a000000000000000000000000000000000000000000000000000000000815260040180806020018281038252602681526020018061407c6026913960400191505060405180910390fd5b8073ffffffffffffffffffffffffffffffffffffffff16600a60009054906101000a900473ffffffffffffffffffffffffffffffffffffffff1673ffffffffffffffffffffffffffffffffffffffff167f8be0079c531659141344cd1fd0a4f28419497f9722a3daafe3b4186f6b6457e060405160405180910390a380600a60006101000a81548173ffffffffffffffffffffffffffffffffffffffff021916908373ffffffffffffffffffffffffffffffffffffffff16021790555050565b6060600d60008381526020019081526020016000208054806020026020016040519081016040528092919081815260200182805480156128de57602002820191906000526020600020905b8154815260200190600101908083116128ca575b50505050509050919050565b600061290082600261314d90919063ffffffff16565b9050919050565b600033905090565b816004600083815260200190815260200160002060006101000a81548173ffffffffffffffffffffffffffffffffffffffff021916908373ffffffffffffffffffffffffffffffffffffffff160217905550808273ffffffffffffffffffffffffffffffffffffffff1661298283611774565b73ffffffffffffffffffffffffffffffffffffffff167f8c5be1e5ebec7d5bd14f71427d1e84f3dd0314c0f7b2291e5b200ac8c7c3b92560405160405180910390a45050565b6129d1826128ea565b612a26576040517f08c379a000000000000000000000000000000000000000000000000000000000815260040180806020018281038252602c815260200180614223602c913960400191505060405180910390fd5b80600860008481526020019081526020016000209080519060200190612a4d929190613f42565b505050565b6000612a6082600001613167565b9050919050565b6000612a72826128ea565b612ac7576040517f08c379a000000000000000000000000000000000000000000000000000000000815260040180806020018281038252602c81526020018061411e602c913960400191505060405180910390fd5b6000612ad283611774565b90508073ffffffffffffffffffffffffffffffffffffffff168473ffffffffffffffffffffffffffffffffffffffff161480612b4157508373ffffffffffffffffffffffffffffffffffffffff16612b2984610fd1565b73ffffffffffffffffffffffffffffffffffffffff16145b80612b525750612b5181856122f6565b5b91505092915050565b8273ffffffffffffffffffffffffffffffffffffffff16612b7b82611774565b73ffffffffffffffffffffffffffffffffffffffff1614612be7576040517f08c379a00000000000000000000000000000000000000000000000000000000081526004018080602001828103825260298152602001806142836029913960400191505060405180910390fd5b600073ffffffffffffffffffffffffffffffffffffffff168273ffffffffffffffffffffffffffffffffffffffff161415612c6d576040517f08c379a00000000000000000000000000000000000000000000000000000000081526004018080602001828103825260248152602001806140d46024913960400191505060405180910390fd5b612c78838383613178565b612c8360008261290f565b612cd481600160008673ffffffffffffffffffffffffffffffffffffffff1673ffffffffffffffffffffffffffffffffffffffff16815260200190815260200160002061317d90919063ffffffff16565b50612d2681600160008573ffffffffffffffffffffffffffffffffffffffff1673ffffffffffffffffffffffffffffffffffffffff16815260200190815260200160002061319790919063ffffffff16565b50612d3d818360026131b19092919063ffffffff16565b50808273ffffffffffffffffffffffffffffffffffffffff168473ffffffffffffffffffffffffffffffffffffffff167fddf252ad1be2c89b69c2b068fc378daa952ba7f163c4a11628f55a4df523b3ef60405160405180910390a4505050565b6000612dad83600001836131e6565b60001c905092915050565b6000612dc382611774565b9050612dd181600084613178565b612ddc60008361290f565b60006008600084815260200190815260200160002080546001816001161561010002031660029004905014612e2b57600860008381526020019081526020016000206000612e2a9190613fc2565b5b612e7c82600160008473ffffffffffffffffffffffffffffffffffffffff1673ffffffffffffffffffffffffffffffffffffffff16815260200190815260200160002061317d90919063ffffffff16565b50612e9182600261326990919063ffffffff16565b5081600073ffffffffffffffffffffffffffffffffffffffff168273ffffffffffffffffffffffffffffffffffffffff167fddf252ad1be2c89b69c2b068fc378daa952ba7f163c4a11628f55a4df523b3ef60405160405180910390a45050565b600080600080612f058660000186613283565b915091508160001c8160001c9350935050509250929050565b6000612f31846000018460001b8461331c565b60001c90509392505050565b6000612f4b82600001613412565b9050919050565b612f5d848484612b5b565b612f6984848484613423565b612fbe576040517f08c379a000000000000000000000000000000000000000000000000000000000815260040180806020018281038252603281526020018061404a6032913960400191505060405180910390fd5b50505050565b6060600082141561300c576040518060400160405280600181526020017f30000000000000000000000000000000000000000000000000000000000000008152509050613106565b600082905060005b60008214613036578080600101915050600a828161302e57fe5b049150613014565b60608167ffffffffffffffff8111801561304f57600080fd5b506040519080825280601f01601f1916602001820160405280156130825781602001600182028036833780820191505090505b50905060006001830390508593505b600084146130fe57600a84816130a357fe5b0660300160f81b828280600190039350815181106130bd57fe5b60200101907effffffffffffffffffffffffffffffffffffffffffffffffffffffffffffff1916908160001a905350600a84816130f657fe5b049350613091565b819450505050505b919050565b6001816000016000828254019250508190555050565b600081600001549050919050565b61314982826040518060200160405280600081525061363c565b5050565b600061315f836000018360001b6136ad565b905092915050565b600081600001805490509050919050565b505050565b600061318f836000018360001b6136d0565b905092915050565b60006131a9836000018360001b6137b8565b905092915050565b60006131dd846000018460001b8473ffffffffffffffffffffffffffffffffffffffff1660001b613828565b90509392505050565b600081836000018054905011613247576040517f08c379a00000000000000000000000000000000000000000000000000000000081526004018080602001828103825260228152602001806140286022913960400191505060405180910390fd5b82600001828154811061325657fe5b9060005260206000200154905092915050565b600061327b836000018360001b613904565b905092915050565b600080828460000180549050116132e5576040517f08c379a00000000000000000000000000000000000000000000000000000000081526004018080602001828103825260228152602001806141d56022913960400191505060405180910390fd5b60008460000184815481106132f657fe5b906000526020600020906002020190508060000154816001015492509250509250929050565b600080846001016000858152602001908152602001600020549050600081141583906133e3576040517f08c379a00000000000000000000000000000000000000000000000000000000081526004018080602001828103825283818151815260200191508051906020019080838360005b838110156133a857808201518184015260208101905061338d565b50505050905090810190601f1680156133d55780820380516001836020036101000a031916815260200191505b509250505060405180910390fd5b508460000160018203815481106133f657fe5b9060005260206000209060020201600101549150509392505050565b600081600001805490509050919050565b60006134448473ffffffffffffffffffffffffffffffffffffffff16613a1d565b6134515760019050613634565b60606135bb63150b7a0260e01b613466612907565b888787604051602401808573ffffffffffffffffffffffffffffffffffffffff1681526020018473ffffffffffffffffffffffffffffffffffffffff16815260200183815260200180602001828103825283818151815260200191508051906020019080838360005b838110156134ea5780820151818401526020810190506134cf565b50505050905090810190601f1680156135175780820380516001836020036101000a031916815260200191505b5095505050505050604051602081830303815290604052907bffffffffffffffffffffffffffffffffffffffffffffffffffffffff19166020820180517bffffffffffffffffffffffffffffffffffffffffffffffffffffffff838183161783525050505060405180606001604052806032815260200161404a603291398773ffffffffffffffffffffffffffffffffffffffff16613a309092919063ffffffff16565b905060008180602001905160208110156135d457600080fd5b8101908080519060200190929190505050905063150b7a0260e01b7bffffffffffffffffffffffffffffffffffffffffffffffffffffffff1916817bffffffffffffffffffffffffffffffffffffffffffffffffffffffff191614925050505b949350505050565b6136468383613a48565b6136536000848484613423565b6136a8576040517f08c379a000000000000000000000000000000000000000000000000000000000815260040180806020018281038252603281526020018061404a6032913960400191505060405180910390fd5b505050565b600080836001016000848152602001908152602001600020541415905092915050565b600080836001016000848152602001908152602001600020549050600081146137ac576000600182039050600060018660000180549050039050600086600001828154811061371b57fe5b906000526020600020015490508087600001848154811061373857fe5b906000526020600020018190555060018301876001016000838152602001908152602001600020819055508660000180548061377057fe5b600190038181906000526020600020016000905590558660010160008781526020019081526020016000206000905560019450505050506137b2565b60009150505b92915050565b60006137c48383613c3c565b61381d578260000182908060018154018082558091505060019003906000526020600020016000909190919091505582600001805490508360010160008481526020019081526020016000208190555060019050613822565b600090505b92915050565b60008084600101600085815260200190815260200160002054905060008114156138cf578460000160405180604001604052808681526020018581525090806001815401808255809150506001900390600052602060002090600202016000909190919091506000820151816000015560208201518160010155505084600001805490508560010160008681526020019081526020016000208190555060019150506138fd565b828560000160018303815481106138e257fe5b90600052602060002090600202016001018190555060009150505b9392505050565b60008083600101600084815260200190815260200160002054905060008114613a11576000600182039050600060018660000180549050039050600086600001828154811061394f57fe5b906000526020600020906002020190508087600001848154811061396f57fe5b90600052602060002090600202016000820154816000015560018201548160010155905050600183018760010160008360000154815260200190815260200160002081905550866000018054806139c257fe5b6001900381819060005260206000209060020201600080820160009055600182016000905550509055866001016000878152602001908152602001600020600090556001945050505050613a17565b60009150505b92915050565b600080823b905060008111915050919050565b6060613a3f8484600085613c5f565b90509392505050565b600073ffffffffffffffffffffffffffffffffffffffff168273ffffffffffffffffffffffffffffffffffffffff161415613aeb576040517f08c379a00000000000000000000000000000000000000000000000000000000081526004018080602001828103825260208152602001807f4552433732313a206d696e7420746f20746865207a65726f206164647265737381525060200191505060405180910390fd5b613af4816128ea565b15613b67576040517f08c379a000000000000000000000000000000000000000000000000000000000815260040180806020018281038252601c8152602001807f4552433732313a20746f6b656e20616c7265616479206d696e7465640000000081525060200191505060405180910390fd5b613b7360008383613178565b613bc481600160008573ffffffffffffffffffffffffffffffffffffffff1673ffffffffffffffffffffffffffffffffffffffff16815260200190815260200160002061319790919063ffffffff16565b50613bdb818360026131b19092919063ffffffff16565b50808273ffffffffffffffffffffffffffffffffffffffff16600073ffffffffffffffffffffffffffffffffffffffff167fddf252ad1be2c89b69c2b068fc378daa952ba7f163c4a11628f55a4df523b3ef60405160405180910390a45050565b600080836001016000848152602001908152602001600020541415905092915050565b606082471015613cba576040517f08c379a00000000000000000000000000000000000000000000000000000000081526004018080602001828103825260268152602001806140f86026913960400191505060405180910390fd5b613cc385613a1d565b613d35576040517f08c379a000000000000000000000000000000000000000000000000000000000815260040180806020018281038252601d8152602001807f416464726573733a2063616c6c20746f206e6f6e2d636f6e747261637400000081525060200191505060405180910390fd5b600060608673ffffffffffffffffffffffffffffffffffffffff1685876040518082805190602001908083835b60208310613d855780518252602082019150602081019050602083039250613d62565b6001836020036101000a03801982511681845116808217855250505050505090500191505060006040518083038185875af1925050503d8060008114613de7576040519150601f19603f3d011682016040523d82523d6000602084013e613dec565b606091505b5091509150613dfc828286613e08565b92505050949350505050565b60608315613e1857829050613ecd565b600083511115613e2b5782518084602001fd5b816040517f08c379a00000000000000000000000000000000000000000000000000000000081526004018080602001828103825283818151815260200191508051906020019080838360005b83811015613e92578082015181840152602081019050613e77565b50505050905090810190601f168015613ebf5780820380516001836020036101000a031916815260200191505b509250505060405180910390fd5b9392505050565b60405180606001604052806000815260200160008152602001600081525090565b828054828255906000526020600020908101928215613f31579160200282015b82811115613f30578251825591602001919060010190613f15565b5b509050613f3e919061400a565b5090565b828054600181600116156101000203166002900490600052602060002090601f016020900481019282601f10613f8357805160ff1916838001178555613fb1565b82800160010185558215613fb1579182015b82811115613fb0578251825591602001919060010190613f95565b5b509050613fbe919061400a565b5090565b50805460018160011615610100020316600290046000825580601f10613fe85750614007565b601f016020900490600052602060002090810190614006919061400a565b5b50565b5b8082111561402357600081600090555060010161400b565b509056fe456e756d657261626c655365743a20696e646578206f7574206f6620626f756e64734552433732313a207472616e7366657220746f206e6f6e20455243373231526563656976657220696d706c656d656e7465724f776e61626c653a206e6577206f776e657220697320746865207a65726f20616464726573734e657720626164676520617265206e6f206c6f6e676572206d696e7461626c65206f6e207468697320636f6e74726163742e4552433732313a207472616e7366657220746f20746865207a65726f2061646472657373416464726573733a20696e73756666696369656e742062616c616e636520666f722063616c6c4552433732313a206f70657261746f7220717565727920666f72206e6f6e6578697374656e7420746f6b656e4552433732313a20617070726f76652063616c6c6572206973206e6f74206f776e6572206e6f7220617070726f76656420666f7220616c6c4552433732313a2062616c616e636520717565727920666f7220746865207a65726f20616464726573734552433732313a206f776e657220717565727920666f72206e6f6e6578697374656e7420746f6b656e456e756d657261626c654d61703a20696e646578206f7574206f6620626f756e64734552433732313a20617070726f76656420717565727920666f72206e6f6e6578697374656e7420746f6b656e4552433732314d657461646174613a2055524920736574206f66206e6f6e6578697374656e7420746f6b656e4e6f2e206f6620636c6f6e65732072657175657374656420657863656564206e6f2e206f6620636c6f6e657320616c6c6f7765644552433732313a207472616e73666572206f6620746f6b656e2074686174206973206e6f74206f776e4552433732314d657461646174613a2055524920717565727920666f72206e6f6e6578697374656e7420746f6b656e4552433732313a20617070726f76616c20746f2063757272656e74206f776e65724552433732313a207472616e736665722063616c6c6572206973206e6f74206f776e6572206e6f7220617070726f766564a26469706673582212200797b86ed42aa2cf62d0ac4005812d343fe79f2287f6221cdf322bbbbd78fcf764736f6c63430007030033",
  "linkReferences": {},
  "deployedLinkReferences": {}
}